{"abi":[{"type":"constructor","inputs":[],"stateMutability":"nonpayable"},{"type":"function","name":"MAX_DEADLINE","inputs":[],"outputs":[{"name":"","type":"uint256","internalType":"uint256"}],"stateMutability":"view"},{"type":"function","name":"MAX_FEE_RATE","inputs":[],"outputs":[{"name":"","type":"uint256","internalType":"uint256"}],"stateMutability":"view"},{"type":"function","name":"MAX_RATING","inputs":[],"outputs":[{"name":"","type":"uint8","internalType":"uint8"}],"stateMutability":"view"},{"type":"function","name":"MIN_RATING","inputs":[],"outputs":[{"name":"","type":"uint8","internalType":"uint8"}],"stateMutability":"view"},{"type":"function","name":"MIN_REWARD","inputs":[],"outputs":[{"name":"","type":"uint256","internalType":"uint256"}],"stateMutability":"view"},{"type":"function","name":"UPGRADE_INTERFACE_VERSION","inputs":[],"outputs":[{"name":"","type":"string","internalType":"string"}],"stateMutability":"view"},{"type":"function","name":"acceptBid","inputs":[{"name":"taskId","type":"uint256","internalType":"uint256"},{"name":"bidIndex","type":"uint256","internalType":"uint256"}],"outputs":[],"stateMutability":"nonpayable"},{"type":"function","name":"accumulatedFees","inputs":[],"outputs":[{"name":"","type":"uint256","internalType":"uint256"}],"stateMutability":"view"},{"type":"function","name":"agentTasks","inputs":[{"name":"","type":"address","internalType":"address"},{"name":"","type":"uint256","internalType":"uint256"}],"outputs":[{"name":"","type":"uint256","internalType":"uint256"}],"stateMutability":"view"},{"type":"function","name":"cancelTask","inputs":[{"name":"taskId","type":"uint256","internalType":"uint256"},{"name":"reason","type":"string","internalType":"string"}],"outputs":[],"stateMutability":"nonpayable"},{"type":"function","name":"clawnchToken","inputs":[],"outputs":[{"name":"","type":"address","internalType":"contract IERC20"}],"stateMutability":"view"},{"type":"function","name":"completeTask","inputs":[{"name":"taskId","type":"uint256","internalType":"uint256"},{"name":"rating","type":"uint8","internalType":"uint8"}],"outputs":[],"stateMutability":"nonpayable"},{"type":"function","name":"createTask","inputs":[{"name":"title","type":"string","internalType":"string"},{"name":"description","type":"string","internalType":"string"},{"name":"reward","type":"uint256","internalType":"uint256"},{"name":"deadlineDays","type":"uint256","internalType":"uint256"}],"outputs":[{"name":"taskId","type":"uint256","internalType":"uint256"}],"stateMutability":"nonpayable"},{"type":"function","name":"feeRate","inputs":[],"outputs":[{"name":"","type":"uint256","internalType":"uint256"}],"stateMutability":"view"},{"type":"function","name":"feeRecipient","inputs":[],"outputs":[{"name":"","type":"address","internalType":"address"}],"stateMutability":"view"},{"type":"function","name":"getAgentStats","inputs":[{"name":"agent","type":"address","internalType":"address"}],"outputs":[{"name":"reputation","type":"uint256","internalType":"uint256"},{"name":"completedTasks","type":"uint256","internalType":"uint256"},{"name":"totalEarnedAmount","type":"uint256","internalType":"uint256"}],"stateMutability":"view"},{"type":"function","name":"getAgentTaskHistory","inputs":[{"name":"agent","type":"address","internalType":"address"}],"outputs":[{"name":"","type":"uint256[]","internalType":"uint256[]"}],"stateMutability":"view"},{"type":"function","name":"getFeeInfo","inputs":[],"outputs":[{"name":"currentFeeRate","type":"uint256","internalType":"uint256"},{"name":"currentFeeRecipient","type":"address","internalType":"address"},{"name":"pendingFees","type":"uint256","internalType":"uint256"},{"name":"totalCollected","type":"uint256","internalType":"uint256"}],"stateMutability":"view"},{"type":"function","name":"getOpenTasks","inputs":[{"name":"offset","type":"uint256","internalType":"uint256"},{"name":"limit","type":"uint256","internalType":"uint256"}],"outputs":[{"name":"","type":"tuple[]","internalType":"struct AgentTaskMarketV2.Task[]","components":[{"name":"id","type":"uint256","internalType":"uint256"},{"name":"creator","type":"address","internalType":"address"},{"name":"runner","type":"address","internalType":"address"},{"name":"title","type":"string","internalType":"string"},{"name":"description","type":"string","internalType":"string"},{"name":"reward","type":"uint256","internalType":"uint256"},{"name":"deadline","type":"uint256","internalType":"uint256"},{"name":"status","type":"uint8","internalType":"enum AgentTaskMarketV2.TaskStatus"},{"name":"deliverables","type":"string","internalType":"string"},{"name":"createdAt","type":"uint256","internalType":"uint256"},{"name":"completedAt","type":"uint256","internalType":"uint256"}]}],"stateMutability":"view"},{"type":"function","name":"getTask","inputs":[{"name":"taskId","type":"uint256","internalType":"uint256"}],"outputs":[{"name":"","type":"tuple","internalType":"struct AgentTaskMarketV2.Task","components":[{"name":"id","type":"uint256","internalType":"uint256"},{"name":"creator","type":"address","internalType":"address"},{"name":"runner","type":"address","internalType":"address"},{"name":"title","type":"string","internalType":"string"},{"name":"description","type":"string","internalType":"string"},{"name":"reward","type":"uint256","internalType":"uint256"},{"name":"deadline","type":"uint256","internalType":"uint256"},{"name":"status","type":"uint8","internalType":"enum AgentTaskMarketV2.TaskStatus"},{"name":"deliverables","type":"string","internalType":"string"},{"name":"createdAt","type":"uint256","internalType":"uint256"},{"name":"completedAt","type":"uint256","internalType":"uint256"}]}],"stateMutability":"view"},{"type":"function","name":"getTaskBids","inputs":[{"name":"taskId","type":"uint256","internalType":"uint256"}],"outputs":[{"name":"","type":"tuple[]","internalType":"struct AgentTaskMarketV2.Bid[]","components":[{"name":"taskId","type":"uint256","internalType":"uint256"},{"name":"bidder","type":"address","internalType":"address"},{"name":"timestamp","type":"uint256","internalType":"uint256"},{"name":"proposal","type":"string","internalType":"string"}]}],"stateMutability":"view"},{"type":"function","name":"getTaskCount","inputs":[],"outputs":[{"name":"","type":"uint256","internalType":"uint256"}],"stateMutability":"view"},{"type":"function","name":"initialize","inputs":[{"name":"_clawnchToken","type":"address","internalType":"address"},{"name":"_feeRecipient","type":"address","internalType":"address"},{"name":"_initialFeeRate","type":"uint256","internalType":"uint256"}],"outputs":[],"stateMutability":"nonpayable"},{"type":"function","name":"owner","inputs":[],"outputs":[{"name":"","type":"address","internalType":"address"}],"stateMutability":"view"},{"type":"function","name":"pause","inputs":[],"outputs":[],"stateMutability":"nonpayable"},{"type":"function","name":"paused","inputs":[],"outputs":[{"name":"","type":"bool","internalType":"bool"}],"stateMutability":"view"},{"type":"function","name":"proxiableUUID","inputs":[],"outputs":[{"name":"","type":"bytes32","internalType":"bytes32"}],"stateMutability":"view"},{"type":"function","name":"raiseDispute","inputs":[{"name":"taskId","type":"uint256","internalType":"uint256"},{"name":"reason","type":"string","internalType":"string"}],"outputs":[],"stateMutability":"nonpayable"},{"type":"function","name":"renounceOwnership","inputs":[],"outputs":[],"stateMutability":"nonpayable"},{"type":"function","name":"reputationScores","inputs":[{"name":"","type":"address","internalType":"address"}],"outputs":[{"name":"","type":"uint256","internalType":"uint256"}],"stateMutability":"view"},{"type":"function","name":"resolveDispute","inputs":[{"name":"taskId","type":"uint256","internalType":"uint256"},{"name":"favorRunner","type":"bool","internalType":"bool"}],"outputs":[],"stateMutability":"nonpayable"},{"type":"function","name":"setFeeRate","inputs":[{"name":"newRate","type":"uint256","internalType":"uint256"}],"outputs":[],"stateMutability":"nonpayable"},{"type":"function","name":"setFeeRecipient","inputs":[{"name":"newRecipient","type":"address","internalType":"address"}],"outputs":[],"stateMutability":"nonpayable"},{"type":"function","name":"submitBid","inputs":[{"name":"taskId","type":"uint256","internalType":"uint256"},{"name":"proposal","type":"string","internalType":"string"}],"outputs":[],"stateMutability":"nonpayable"},{"type":"function","name":"submitTask","inputs":[{"name":"taskId","type":"uint256","internalType":"uint256"},{"name":"deliverables","type":"string","internalType":"string"}],"outputs":[],"stateMutability":"nonpayable"},{"type":"function","name":"taskBids","inputs":[{"name":"","type":"uint256","internalType":"uint256"},{"name":"","type":"uint256","internalType":"uint256"}],"outputs":[{"name":"taskId","type":"uint256","internalType":"uint256"},{"name":"bidder","type":"address","internalType":"address"},{"name":"timestamp","type":"uint256","internalType":"uint256"},{"name":"proposal","type":"string","internalType":"string"}],"stateMutability":"view"},{"type":"function","name":"taskCount","inputs":[{"name":"","type":"address","internalType":"address"}],"outputs":[{"name":"","type":"uint256","internalType":"uint256"}],"stateMutability":"view"},{"type":"function","name":"tasks","inputs":[{"name":"","type":"uint256","internalType":"uint256"}],"outputs":[{"name":"id","type":"uint256","internalType":"uint256"},{"name":"creator","type":"address","internalType":"address"},{"name":"runner","type":"address","internalType":"address"},{"name":"title","type":"string","internalType":"string"},{"name":"description","type":"string","internalType":"string"},{"name":"reward","type":"uint256","internalType":"uint256"},{"name":"deadline","type":"uint256","internalType":"uint256"},{"name":"status","type":"uint8","internalType":"enum AgentTaskMarketV2.TaskStatus"},{"name":"deliverables","type":"string","internalType":"string"},{"name":"createdAt","type":"uint256","internalType":"uint256"},{"name":"completedAt","type":"uint256","internalType":"uint256"}],"stateMutability":"view"},{"type":"function","name":"totalEarned","inputs":[{"name":"","type":"address","internalType":"address"}],"outputs":[{"name":"","type":"uint256","internalType":"uint256"}],"stateMutability":"view"},{"type":"function","name":"totalFeesCollected","inputs":[],"outputs":[{"name":"","type":"uint256","internalType":"uint256"}],"stateMutability":"view"},{"type":"function","name":"transferOwnership","inputs":[{"name":"newOwner","type":"address","internalType":"address"}],"outputs":[],"stateMutability":"nonpayable"},{"type":"function","name":"unpause","inputs":[],"outputs":[],"stateMutability":"nonpayable"},{"type":"function","name":"upgradeToAndCall","inputs":[{"name":"newImplementation","type":"address","internalType":"address"},{"name":"data","type":"bytes","internalType":"bytes"}],"outputs":[],"stateMutability":"payable"},{"type":"function","name":"version","inputs":[],"outputs":[{"name":"","type":"string","internalType":"string"}],"stateMutability":"pure"},{"type":"function","name":"withdrawFees","inputs":[],"outputs":[],"stateMutability":"nonpayable"},{"type":"event","name":"BidSubmitted","inputs":[{"name":"taskId","type":"uint256","indexed":true,"internalType":"uint256"},{"name":"bidder","type":"address","indexed":true,"internalType":"address"}],"anonymous":false},{"type":"event","name":"DisputeResolved","inputs":[{"name":"taskId","type":"uint256","indexed":true,"internalType":"uint256"},{"name":"winner","type":"address","indexed":true,"internalType":"address"},{"name":"amount","type":"uint256","indexed":false,"internalType":"uint256"}],"anonymous":false},{"type":"event","name":"FeeRateUpdated","inputs":[{"name":"oldRate","type":"uint256","indexed":false,"internalType":"uint256"},{"name":"newRate","type":"uint256","indexed":false,"internalType":"uint256"}],"anonymous":false},{"type":"event","name":"FeeRecipientUpdated","inputs":[{"name":"oldRecipient","type":"address","indexed":false,"internalType":"address"},{"name":"newRecipient","type":"address","indexed":false,"internalType":"address"}],"anonymous":false},{"type":"event","name":"FeesWithdrawn","inputs":[{"name":"recipient","type":"address","indexed":true,"internalType":"address"},{"name":"amount","type":"uint256","indexed":false,"internalType":"uint256"}],"anonymous":false},{"type":"event","name":"Initialized","inputs":[{"name":"version","type":"uint64","indexed":false,"internalType":"uint64"}],"anonymous":false},{"type":"event","name":"OwnershipTransferred","inputs":[{"name":"previousOwner","type":"address","indexed":true,"internalType":"address"},{"name":"newOwner","type":"address","indexed":true,"internalType":"address"}],"anonymous":false},{"type":"event","name":"Paused","inputs":[{"name":"account","type":"address","indexed":false,"internalType":"address"}],"anonymous":false},{"type":"event","name":"ReputationUpdated","inputs":[{"name":"agent","type":"address","indexed":true,"internalType":"address"},{"name":"oldScore","type":"uint256","indexed":false,"internalType":"uint256"},{"name":"newScore","type":"uint256","indexed":false,"internalType":"uint256"}],"anonymous":false},{"type":"event","name":"TaskAssigned","inputs":[{"name":"taskId","type":"uint256","indexed":true,"internalType":"uint256"},{"name":"creator","type":"address","indexed":true,"internalType":"address"},{"name":"runner","type":"address","indexed":true,"internalType":"address"}],"anonymous":false},{"type":"event","name":"TaskCancelled","inputs":[{"name":"taskId","type":"uint256","indexed":true,"internalType":"uint256"},{"name":"creator","type":"address","indexed":true,"internalType":"address"},{"name":"reason","type":"string","indexed":false,"internalType":"string"}],"anonymous":false},{"type":"event","name":"TaskCompleted","inputs":[{"name":"taskId","type":"uint256","indexed":true,"internalType":"uint256"},{"name":"creator","type":"address","indexed":true,"internalType":"address"},{"name":"runner","type":"address","indexed":true,"internalType":"address"},{"name":"reward","type":"uint256","indexed":false,"internalType":"uint256"},{"name":"fee","type":"uint256","indexed":false,"internalType":"uint256"},{"name":"rating","type":"uint8","indexed":false,"internalType":"uint8"}],"anonymous":false},{"type":"event","name":"TaskCreated","inputs":[{"name":"taskId","type":"uint256","indexed":true,"internalType":"uint256"},{"name":"creator","type":"address","indexed":true,"internalType":"address"},{"name":"title","type":"string","indexed":false,"internalType":"string"},{"name":"reward","type":"uint256","indexed":false,"internalType":"uint256"}],"anonymous":false},{"type":"event","name":"TaskDisputed","inputs":[{"name":"taskId","type":"uint256","indexed":true,"internalType":"uint256"},{"name":"initiator","type":"address","indexed":true,"internalType":"address"},{"name":"reason","type":"string","indexed":false,"internalType":"string"}],"anonymous":false},{"type":"event","name":"TaskSubmitted","inputs":[{"name":"taskId","type":"uint256","indexed":true,"internalType":"uint256"},{"name":"runner","type":"address","indexed":true,"internalType":"address"},{"name":"deliverables","type":"string","indexed":false,"internalType":"string"}],"anonymous":false},{"type":"event","name":"Unpaused","inputs":[{"name":"account","type":"address","indexed":false,"internalType":"address"}],"anonymous":false},{"type":"event","name":"Upgraded","inputs":[{"name":"implementation","type":"address","indexed":true,"internalType":"address"}],"anonymous":false},{"type":"error","name":"AddressEmptyCode","inputs":[{"name":"target","type":"address","internalType":"address"}]},{"type":"error","name":"ERC1967InvalidImplementation","inputs":[{"name":"implementation","type":"address","internalType":"address"}]},{"type":"error","name":"ERC1967NonPayable","inputs":[]},{"type":"error","name":"EnforcedPause","inputs":[]},{"type":"error","name":"ExpectedPause","inputs":[]},{"type":"error","name":"FailedCall","inputs":[]},{"type":"error","name":"InvalidAddress","inputs":[]},{"type":"error","name":"InvalidDeadline","inputs":[]},{"type":"error","name":"InvalidFeeRate","inputs":[]},{"type":"error","name":"InvalidInitialization","inputs":[]},{"type":"error","name":"InvalidRating","inputs":[]},{"type":"error","name":"InvalidReward","inputs":[]},{"type":"error","name":"NoFeesToWithdraw","inputs":[]},{"type":"error","name":"NotInitializing","inputs":[]},{"type":"error","name":"NotTaskCreator","inputs":[{"name":"taskId","type":"uint256","internalType":"uint256"}]},{"type":"error","name":"NotTaskRunner","inputs":[{"name":"taskId","type":"uint256","internalType":"uint256"}]},{"type":"error","name":"OwnableInvalidOwner","inputs":[{"name":"owner","type":"address","internalType":"address"}]},{"type":"error","name":"OwnableUnauthorizedAccount","inputs":[{"name":"account","type":"address","internalType":"address"}]},{"type":"error","name":"ReentrancyGuardReentrantCall","inputs":[]},{"type":"error","name":"TaskAlreadyAssigned","inputs":[{"name":"taskId","type":"uint256","internalType":"uint256"}]},{"type":"error","name":"TaskNotInProgress","inputs":[{"name":"taskId","type":"uint256","internalType":"uint256"}]},{"type":"error","name":"TaskNotOpen","inputs":[{"name":"taskId","type":"uint256","internalType":"uint256"}]},{"type":"error","name":"TransferFailed","inputs":[]},{"type":"error","name":"UUPSUnauthorizedCallContext","inputs":[]},{"type":"error","name":"UUPSUnsupportedProxiableUUID","inputs":[{"name":"slot","type":"bytes32","internalType":"bytes32"}]}],"bytecode":{"object":"0x60a060405230608052348015610013575f5ffd5b5061001c610021565b6100d3565b7ff0c57e16840df040f15088dc2f81fe391c3923bec73e23a9662efc9c229c6a00805468010000000000000000900460ff16156100715760405163f92ee8a960e01b815260040160405180910390fd5b80546001600160401b03908116146100d05780546001600160401b0319166001600160401b0390811782556040519081527fc7f505b2f371ae2175ee4913f4499e1f2633a7b5936321eed1cdaeb6115181d29060200160405180910390a15b50565b608051613e316100f95f395f8181612fb001528181612fd9015261311d0152613e315ff3fe608060405260043610610269575f3560e01c80635c975abb1161014a57806394e113ea116100be578063bb0e4ea211610078578063bb0e4ea214610810578063c17a340e14610824578063e74b981b14610838578063ecb8adae14610857578063f2fde38b14610876578063fe0438b214610895575f5ffd5b806394e113ea146106f4578063978bbdb91461071a578063a4a268aa1461072f578063ad3cb1cc1461074e578063add94fe71461077e578063b5695b38146107aa575f5ffd5b8063715018a61161010f578063715018a614610626578063776bae681461063a5780638456cb59146106595780638d9776721461066d5780638da5cb5b146106a357806392f6576e146106df575f5ffd5b80635c975abb1461058357806360c6d8ae146105b1578063649aca4a146105c6578063670ad782146105f15780636f0e530f14610610575f5ffd5b806345596e2e116101e15780634f1ef286116101a65780634f1ef286146104c357806352d1902d146104d65780635492b197146104ea57806354fd4d5014610519578063587f5ed71461054f5780635aef573c14610564575f5ffd5b806345596e2e14610420578063469048401461043f578063476343ee1461047657806348ea0c031461048a578063497813d2146104a5575f5ffd5b80631d65e77e116102325780631d65e77e146103575780632cacac9b1461038357806334b25ee2146103af5780633a01135e146103ce5780633f4ba83a146103ed57806342f19aac14610401575f5ffd5b806202eab71461026d57806302e9d5e4146102b2578063082d1abb146102d3578063164bcc261461030c5780631794bb3c14610338575b5f5ffd5b348015610278575f5ffd5b50600354600454600554600654604080519485526001600160a01b0390931660208501529183015260608201526080015b60405180910390f35b3480156102bd575f5ffd5b506102d16102cc366004613505565b6108c0565b005b3480156102de575f5ffd5b506102fe6102ed366004613540565b600a6020525f908152604090205481565b6040519081526020016102a9565b348015610317575f5ffd5b5061032b610326366004613505565b610b1a565b6040516102a99190613692565b348015610343575f5ffd5b506102d16103523660046136f5565b610f1c565b348015610362575f5ffd5b5061037661037136600461372f565b6110e8565b6040516102a99190613746565b34801561038e575f5ffd5b506103a261039d36600461372f565b611386565b6040516102a99190613758565b3480156103ba575f5ffd5b506102d16103c93660046137f0565b6114af565b3480156103d9575f5ffd5b506102d16103e83660046138c7565b611870565b3480156103f8575f5ffd5b506102d16119b0565b34801561040c575f5ffd5b506102d161041b36600461390b565b6119c2565b34801561042b575f5ffd5b506102d161043a36600461372f565b611d60565b34801561044a575f5ffd5b5060045461045e906001600160a01b031681565b6040516001600160a01b0390911681526020016102a9565b348015610481575f5ffd5b506102d1611dcc565b348015610495575f5ffd5b506102fe670de0b6b3a764000081565b3480156104b0575f5ffd5b505f5461045e906001600160a01b031681565b6102d16104d1366004613933565b611ef4565b3480156104e1575f5ffd5b506102fe611f0f565b3480156104f5575f5ffd5b50610509610504366004613505565b611f2a565b6040516102a99493929190613987565b348015610524575f5ffd5b506040805180820190915260058152640322e302e360dc1b60208201525b6040516102a991906139bd565b34801561055a575f5ffd5b506102fe60055481565b34801561056f575f5ffd5b506102d161057e3660046138c7565b612000565b34801561058e575f5ffd5b505f516020613dbc5f395f51905f525460ff1660405190151581526020016102a9565b3480156105bc575f5ffd5b506102fe60065481565b3480156105d1575f5ffd5b506102fe6105e0366004613540565b600b6020525f908152604090205481565b3480156105fc575f5ffd5b506102fe61060b3660046139cf565b61221b565b34801561061b575f5ffd5b506102fe62278d0081565b348015610631575f5ffd5b506102d1612246565b348015610645575f5ffd5b506102d16106543660046138c7565b612257565b348015610664575f5ffd5b506102d16123e8565b348015610678575f5ffd5b5061068c61068736600461372f565b6123f8565b6040516102a99b9a999897969594939291906139f7565b3480156106ae575f5ffd5b507f9016d09d72d40fdae2fd8ceac6b6234c7706214fd39c1cd1e609a0528c199300546001600160a01b031661045e565b3480156106ea575f5ffd5b506102fe6103e881565b3480156106ff575f5ffd5b50610708600581565b60405160ff90911681526020016102a9565b348015610725575f5ffd5b506102fe60035481565b34801561073a575f5ffd5b506102fe610749366004613a86565b612605565b348015610759575f5ffd5b50610542604051806040016040528060058152602001640352e302e360dc1b81525081565b348015610789575f5ffd5b5061079d610798366004613540565b612985565b6040516102a99190613afa565b3480156107b5575f5ffd5b506107f56107c4366004613540565b6001600160a01b03165f90815260096020908152604080832054600a835281842054600b9093529220549192909190565b604080519384526020840192909252908201526060016102a9565b34801561081b575f5ffd5b50610708600181565b34801561082f575f5ffd5b506002546102fe565b348015610843575f5ffd5b506102d1610852366004613540565b6129ee565b348015610862575f5ffd5b506102d16108713660046138c7565b612a86565b348015610881575f5ffd5b506102d1610890366004613540565b612cc3565b3480156108a0575f5ffd5b506102fe6108af366004613540565b60096020525f908152604090205481565b6108c8612d00565b600254829081106108f45760405162461bcd60e51b81526004016108eb90613b3c565b60405180910390fd5b336001600160a01b03166002848154811061091157610911613b65565b5f91825260209091206001600b9092020101546001600160a01b03161461094e57604051631adc86f560e11b8152600481018490526024016108eb565b5f6001600160a01b03166002848154811061096b5761096b613b65565b5f91825260209091206002600b9092020101546001600160a01b0316146109a857604051635fa3e3ab60e11b8152600481018490526024016108eb565b5f838152600760205260409020805483106109f95760405162461bcd60e51b8152602060048201526011602482015270092dcecc2d8d2c840c4d2c840d2dcc8caf607b1b60448201526064016108eb565b5f818481548110610a0c57610a0c613b65565b905f5260205f2090600402016001015f9054906101000a90046001600160a01b031690508060028681548110610a4457610a44613b65565b905f5260205f2090600b02016002015f6101000a8154816001600160a01b0302191690836001600160a01b03160217905550600160028681548110610a8b57610a8b613b65565b5f91825260209091206007600b9092020101805460ff19166001836005811115610ab757610ab7613587565b02179055506001600160a01b0381165f818152600860209081526040808320805460018101825590845291832090910188905551339188917ffe58e4bb1e9a69b912e9ef1be9463a03d5d7aa99d2116726abd48e28acc4f91e9190a45050505050565b60605f805b600254811015610b7f575f60028281548110610b3d57610b3d613b65565b5f91825260209091206007600b90920201015460ff166005811115610b6457610b64613587565b03610b775781610b7381613b8d565b9250505b600101610b1f565b505f610ba184868411610b92575f612d30565b610b9c8785613ba5565b612d30565b90505f8167ffffffffffffffff811115610bbd57610bbd61381e565b604051908082528060200260200182016040528015610bf657816020015b610be3613490565b815260200190600190039081610bdb5790505b5090505f80805b60025481108015610c0d57508482105b15610f0d575f60028281548110610c2657610c26613b65565b5f91825260209091206007600b90920201015460ff166005811115610c4d57610c4d613587565b03610efb57888310610eed5760028181548110610c6c57610c6c613b65565b5f9182526020918290206040805161016081018252600b9093029091018054835260018101546001600160a01b0390811694840194909452600281015490931690820152600382018054919291606084019190610cc890613bb8565b80601f0160208091040260200160405190810160405280929190818152602001828054610cf490613bb8565b8015610d3f5780601f10610d1657610100808354040283529160200191610d3f565b820191905f5260205f20905b815481529060010190602001808311610d2257829003601f168201915b50505050508152602001600482018054610d5890613bb8565b80601f0160208091040260200160405190810160405280929190818152602001828054610d8490613bb8565b8015610dcf5780601f10610da657610100808354040283529160200191610dcf565b820191905f5260205f20905b815481529060010190602001808311610db257829003601f168201915b5050509183525050600582810154602083015260068301546040830152600783015460609092019160ff1690811115610e0a57610e0a613587565b6005811115610e1b57610e1b613587565b8152602001600882018054610e2f90613bb8565b80601f0160208091040260200160405190810160405280929190818152602001828054610e5b90613bb8565b8015610ea65780601f10610e7d57610100808354040283529160200191610ea6565b820191905f5260205f20905b815481529060010190602001808311610e8957829003601f168201915b5050505050815260200160098201548152602001600a82015481525050848380610ecf90613b8d565b945081518110610ee157610ee1613b65565b60200260200101819052505b82610ef781613b8d565b9350505b80610f0581613b8d565b915050610bfd565b50919450505050505b92915050565b7ff0c57e16840df040f15088dc2f81fe391c3923bec73e23a9662efc9c229c6a008054600160401b810460ff16159067ffffffffffffffff165f81158015610f615750825b90505f8267ffffffffffffffff166001148015610f7d5750303b155b905081158015610f8b575080155b15610fa95760405163f92ee8a960e01b815260040160405180910390fd5b845467ffffffffffffffff191660011785558315610fd357845460ff60401b1916600160401b1785555b610fdc33612d47565b610fe4612d58565b610fec612d68565b610ff4612d78565b6001600160a01b03881661101b5760405163e6c4247b60e01b815260040160405180910390fd5b6001600160a01b0387166110425760405163e6c4247b60e01b815260040160405180910390fd5b6103e886111561106557604051630adad23360e31b815260040160405180910390fd5b5f80546001600160a01b03808b166001600160a01b031992831617835560048054918b1691909216179055600387905560015583156110de57845460ff60401b19168555604051600181527fc7f505b2f371ae2175ee4913f4499e1f2633a7b5936321eed1cdaeb6115181d29060200160405180910390a15b5050505050505050565b6110f0613490565b600254829081106111135760405162461bcd60e51b81526004016108eb90613b3c565b6002838154811061112657611126613b65565b5f9182526020918290206040805161016081018252600b9093029091018054835260018101546001600160a01b039081169484019490945260028101549093169082015260038201805491929160608401919061118290613bb8565b80601f01602080910402602001604051908101604052809291908181526020018280546111ae90613bb8565b80156111f95780601f106111d0576101008083540402835291602001916111f9565b820191905f5260205f20905b8154815290600101906020018083116111dc57829003601f168201915b5050505050815260200160048201805461121290613bb8565b80601f016020809104026020016040519081016040528092919081815260200182805461123e90613bb8565b80156112895780601f1061126057610100808354040283529160200191611289565b820191905f5260205f20905b81548152906001019060200180831161126c57829003601f168201915b5050509183525050600582810154602083015260068301546040830152600783015460609092019160ff16908111156112c4576112c4613587565b60058111156112d5576112d5613587565b81526020016008820180546112e990613bb8565b80601f016020809104026020016040519081016040528092919081815260200182805461131590613bb8565b80156113605780601f1061133757610100808354040283529160200191611360565b820191905f5260205f20905b81548152906001019060200180831161134357829003601f168201915b5050505050815260200160098201548152602001600a8201548152505091505b50919050565b606060075f8381526020019081526020015f20805480602002602001604051908101604052809291908181526020015f905b828210156114a4575f84815260209081902060408051608081018252600486029092018054835260018101546001600160a01b03169383019390935260028301549082015260038201805491929160608401919061141590613bb8565b80601f016020809104026020016040519081016040528092919081815260200182805461144190613bb8565b801561148c5780601f106114635761010080835404028352916020019161148c565b820191905f5260205f20905b81548152906001019060200180831161146f57829003601f168201915b505050505081525050815260200190600101906113b8565b505050509050919050565b6114b7612d80565b600254829081106114da5760405162461bcd60e51b81526004016108eb90613b3c565b6005600284815481106114ef576114ef613b65565b5f91825260209091206007600b90920201015460ff16600581111561151657611516613587565b146115545760405162461bcd60e51b815260206004820152600e60248201526d4e6f7420696e206469737075746560901b60448201526064016108eb565b5f6002848154811061156857611568613b65565b905f5260205f2090600b02016005015490505f83156116ff575f612710600354846115939190613bea565b61159d9190613c01565b90505f6115aa8285613ba5565b9050600287815481106115bf576115bf613b65565b5f918252602082206002600b909202010154600580546001600160a01b039092169550849290916115f1908490613c20565b925050819055508160065f8282546116099190613c20565b90915550505f5460405163a9059cbb60e01b81526001600160a01b038581166004830152602482018490529091169063a9059cbb906044016020604051808303815f875af115801561165d573d5f5f3e3d5ffd5b505050506040513d601f19601f820116820180604052508101906116819190613c33565b61169e576040516312171d8360e31b815260040160405180910390fd5b6001600160a01b0383165f908152600a602052604081208054600192906116c6908490613c20565b90915550506001600160a01b0383165f908152600b6020526040812080548392906116f2908490613c20565b909155506117b892505050565b6002858154811061171257611712613b65565b5f91825260208220600b919091020160010154905460405163a9059cbb60e01b81526001600160a01b039283166004820181905260248201869052935091169063a9059cbb906044016020604051808303815f875af1158015611777573d5f5f3e3d5ffd5b505050506040513d601f19601f8201168201806040525081019061179b9190613c33565b6117b8576040516312171d8360e31b815260040160405180910390fd5b6003600286815481106117cd576117cd613b65565b5f91825260209091206007600b9092020101805460ff191660018360058111156117f9576117f9613587565b0217905550426002868154811061181257611812613b65565b905f5260205f2090600b0201600a0181905550806001600160a01b0316857fdf0baf5489595ea17a097d16827d60793e2f57f3b85a982e5d7e02838b841ee68460405161186191815260200190565b60405180910390a35050505050565b611878612d00565b6002548290811061189b5760405162461bcd60e51b81526004016108eb90613b3c565b5f600284815481106118af576118af613b65565b5f91825260209091206007600b90920201015460ff1660058111156118d6576118d6613587565b146118f757604051639d6bda0b60e01b8152600481018490526024016108eb565b5f83815260076020908152604080832081516080810183528781523381850190815242938201938452606082018881528354600180820186559488529590962082516004909602019485555191840180546001600160a01b0319166001600160a01b0390931692909217909155905160028301559151600382019061197c9082613ca4565b505060405133915084907f14f32a2464bd02d81cc866ab8a4ab09360c685fc8156837dcdf398208674d12b905f90a3505050565b6119b8612d80565b6119c0612ddb565b565b6119ca612d00565b6119d2612e3a565b600254829081106119f55760405162461bcd60e51b81526004016108eb90613b3c565b336001600160a01b031660028481548110611a1257611a12613b65565b5f91825260209091206001600b9092020101546001600160a01b031614611a4f57604051631adc86f560e11b8152600481018490526024016108eb565b6002808481548110611a6357611a63613b65565b5f91825260209091206007600b90920201015460ff166005811115611a8a57611a8a613587565b14611aab5760405163e9c2cf2160e01b8152600481018490526024016108eb565b600160ff83161080611ac05750600560ff8316115b15611ade5760405163d29df2dd60e01b815260040160405180910390fd5b5f60028481548110611af257611af2613b65565b5f918252602082206002600b9092020181015481546001600160a01b03909116935086908110611b2457611b24613b65565b905f5260205f2090600b02016005015490505f61271060035483611b489190613bea565b611b529190613c01565b90505f611b5f8284613ba5565b9050600360028881548110611b7657611b76613b65565b5f91825260209091206007600b9092020101805460ff19166001836005811115611ba257611ba2613587565b02179055504260028881548110611bbb57611bbb613b65565b905f5260205f2090600b0201600a01819055508160055f828254611bdf9190613c20565b925050819055508160065f828254611bf79190613c20565b90915550505f5460405163a9059cbb60e01b81526001600160a01b038681166004830152602482018490529091169063a9059cbb906044016020604051808303815f875af1158015611c4b573d5f5f3e3d5ffd5b505050506040513d601f19601f82011682018060405250810190611c6f9190613c33565b611c8c576040516312171d8360e31b815260040160405180910390fd5b611c968487612e71565b6001600160a01b0384165f908152600a60205260408120805460019290611cbe908490613c20565b90915550506001600160a01b0384165f908152600b602052604081208054839290611cea908490613c20565b9091555050604080518281526020810184905260ff88168183015290516001600160a01b0386169133918a917f1451eab068ac6ccb64aea7eb1cf3c21b2051c65d0e1c964a4906d7cc3183b652919081900360600190a45050505050611d5c60015f516020613ddc5f395f51905f5255565b5050565b611d68612d80565b6103e8811115611d8b57604051630adad23360e31b815260040160405180910390fd5b60035460408051918252602082018390527f14914da2bf76024616fbe1859783fcd4dbddcb179b1f3a854949fbf920dcb957910160405180910390a1600355565b611dd4612d80565b611ddc612e3a565b6005545f819003611e0057604051630d00db4d60e31b815260040160405180910390fd5b5f6005819055546004805460405163a9059cbb60e01b81526001600160a01b0391821692810192909252602482018490529091169063a9059cbb906044016020604051808303815f875af1158015611e5a573d5f5f3e3d5ffd5b505050506040513d601f19601f82011682018060405250810190611e7e9190613c33565b611e9b576040516312171d8360e31b815260040160405180910390fd5b6004546040518281526001600160a01b03909116907fc0819c13be868895eb93e40eaceb96de976442fa1d404e5c55f14bb65a8c489a9060200160405180910390a2506119c060015f516020613ddc5f395f51905f5255565b611efc612fa5565b611f0582613049565b611d5c8282613051565b5f611f18613112565b505f516020613d9c5f395f51905f5290565b6007602052815f5260405f208181548110611f43575f80fd5b5f91825260209091206004909102018054600182015460028301546003840180549396506001600160a01b0390921694509291611f7f90613bb8565b80601f0160208091040260200160405190810160405280929190818152602001828054611fab90613bb8565b8015611ff65780601f10611fcd57610100808354040283529160200191611ff6565b820191905f5260205f20905b815481529060010190602001808311611fd957829003601f168201915b5050505050905084565b612008612d00565b6002548290811061202b5760405162461bcd60e51b81526004016108eb90613b3c565b60016002848154811061204057612040613b65565b5f91825260209091206007600b90920201015460ff16600581111561206757612067613587565b14806120ab5750600280848154811061208257612082613b65565b5f91825260209091206007600b90920201015460ff1660058111156120a9576120a9613587565b145b6120e85760405162461bcd60e51b815260206004820152600e60248201526d43616e6e6f74206469737075746560901b60448201526064016108eb565b600283815481106120fb576120fb613b65565b5f9182526020909120600b90910201600101546001600160a01b031633148061215157506002838154811061213257612132613b65565b5f9182526020909120600b90910201600201546001600160a01b031633145b61218e5760405162461bcd60e51b815260206004820152600e60248201526d139bdd08185d5d1a1bdc9a5e995960921b60448201526064016108eb565b6005600284815481106121a3576121a3613b65565b5f91825260209091206007600b9092020101805460ff191660018360058111156121cf576121cf613587565b0217905550336001600160a01b0316837f2214f6a8b429291289d3afcdfccc59167b10f1d8ad1529e3959f9cd19f19af5f8460405161220e91906139bd565b60405180910390a3505050565b6008602052815f5260405f208181548110612234575f80fd5b905f5260205f20015f91509150505481565b61224e612d80565b6119c05f61315b565b61225f612d00565b600254829081106122825760405162461bcd60e51b81526004016108eb90613b3c565b336001600160a01b03166002848154811061229f5761229f613b65565b5f91825260209091206002600b9092020101546001600160a01b0316146122dc57604051635ce925d760e01b8152600481018490526024016108eb565b6001600284815481106122f1576122f1613b65565b5f91825260209091206007600b90920201015460ff16600581111561231857612318613587565b146123395760405163e9c2cf2160e01b8152600481018490526024016108eb565b600280848154811061234d5761234d613b65565b5f91825260209091206007600b9092020101805460ff1916600183600581111561237957612379613587565b0217905550816002848154811061239257612392613b65565b905f5260205f2090600b020160080190816123ad9190613ca4565b50336001600160a01b0316837f9989978868daa22b7a8a054a31e686ab83a420750a2a60b58facca87bf7c12198460405161220e91906139bd565b6123f0612d80565b6119c06131cb565b60028181548110612407575f80fd5b5f9182526020909120600b909102018054600182015460028301546003840180549395506001600160a01b0392831694929091169261244590613bb8565b80601f016020809104026020016040519081016040528092919081815260200182805461247190613bb8565b80156124bc5780601f10612493576101008083540402835291602001916124bc565b820191905f5260205f20905b81548152906001019060200180831161249f57829003601f168201915b5050505050908060040180546124d190613bb8565b80601f01602080910402602001604051908101604052809291908181526020018280546124fd90613bb8565b80156125485780601f1061251f57610100808354040283529160200191612548565b820191905f5260205f20905b81548152906001019060200180831161252b57829003601f168201915b5050506005840154600685015460078601546008870180549697939692955060ff90911693509061257890613bb8565b80601f01602080910402602001604051908101604052809291908181526020018280546125a490613bb8565b80156125ef5780601f106125c6576101008083540402835291602001916125ef565b820191905f5260205f20905b8154815290600101906020018083116125d257829003601f168201915b50505050509080600901549080600a015490508b565b5f61260e612d00565b612616612e3a565b670de0b6b3a764000083101561263f576040516314414f4160e11b815260040160405180910390fd5b81158061264c5750601e82115b1561266a57604051631da7447960e21b815260040160405180910390fd5b5f546040516323b872dd60e01b8152336004820152306024820152604481018590526001600160a01b03909116906323b872dd906064016020604051808303815f875af11580156126bd573d5f5f3e3d5ffd5b505050506040513d601f19601f820116820180604052508101906126e19190613c33565b6126fe576040516312171d8360e31b815260040160405180910390fd5b60018054905f61270d83613b8d565b9190505590505f604051806101600160405280838152602001336001600160a01b031681526020015f6001600160a01b0316815260200187815260200186815260200185815260200184620151806127659190613bea565b61276f9042613c20565b81526020015f815260408051602080820183525f808352818501929092524283850152606093840182905260028054600181018255925284517f405787fa12a823e0f2b7631cc41b3ba8828b3321ca811111fa75cd3aa3bb5ace600b909302928301908155908501517f405787fa12a823e0f2b7631cc41b3ba8828b3321ca811111fa75cd3aa3bb5acf830180546001600160a01b03199081166001600160a01b0393841617909155938601517f405787fa12a823e0f2b7631cc41b3ba8828b3321ca811111fa75cd3aa3bb5ad08401805490951691161790925591830151929350839290917f405787fa12a823e0f2b7631cc41b3ba8828b3321ca811111fa75cd3aa3bb5ad101906128829082613ca4565b50608082015160048201906128979082613ca4565b5060a0820151816005015560c0820151816006015560e0820151816007015f6101000a81548160ff021916908360058111156128d5576128d5613587565b021790555061010082015160088201906128ef9082613ca4565b50610120820151600982015561014090910151600a90910155335f818152600860209081526040808320805460018101825590845291909220018490555183907f9e3c9757475c00b86393e183b68033bb76e48fa164849c7428ad17f62e1954a79061295e908a908990613d63565b60405180910390a35061297d60015f516020613ddc5f395f51905f5255565b949350505050565b6001600160a01b0381165f908152600860209081526040918290208054835181840281018401909452808452606093928301828280156129e257602002820191905f5260205f20905b8154815260200190600101908083116129ce575b50505050509050919050565b6129f6612d80565b6001600160a01b038116612a1d5760405163e6c4247b60e01b815260040160405180910390fd5b600454604080516001600160a01b03928316815291831660208301527faaebcf1bfa00580e41d966056b48521fa9f202645c86d4ddf28113e617c1b1d3910160405180910390a1600480546001600160a01b0319166001600160a01b0392909216919091179055565b612a8e612d00565b612a96612e3a565b60025482908110612ab95760405162461bcd60e51b81526004016108eb90613b3c565b336001600160a01b031660028481548110612ad657612ad6613b65565b5f91825260209091206001600b9092020101546001600160a01b031614612b1357604051631adc86f560e11b8152600481018490526024016108eb565b5f60028481548110612b2757612b27613b65565b5f91825260209091206007600b90920201015460ff166005811115612b4e57612b4e613587565b14612b6f57604051639d6bda0b60e01b8152600481018490526024016108eb565b5f60028481548110612b8357612b83613b65565b905f5260205f2090600b0201600501549050600460028581548110612baa57612baa613b65565b5f91825260209091206007600b9092020101805460ff19166001836005811115612bd657612bd6613587565b02179055505f5460405163a9059cbb60e01b8152336004820152602481018390526001600160a01b039091169063a9059cbb906044016020604051808303815f875af1158015612c28573d5f5f3e3d5ffd5b505050506040513d601f19601f82011682018060405250810190612c4c9190613c33565b612c69576040516312171d8360e31b815260040160405180910390fd5b336001600160a01b0316847fb648cd5c56d5badeeb864e8605fefa22133eaae000baee4782e7a3d2a350dead85604051612ca391906139bd565b60405180910390a35050611d5c60015f516020613ddc5f395f51905f5255565b612ccb612d80565b6001600160a01b038116612cf457604051631e4fbdf760e01b81525f60048201526024016108eb565b612cfd8161315b565b50565b5f516020613dbc5f395f51905f525460ff16156119c05760405163d93c066560e01b815260040160405180910390fd5b5f818310612d3e5781612d40565b825b9392505050565b612d4f613213565b612cfd8161325c565b612d60613213565b6119c0613264565b612d70613213565b6119c0613284565b6119c0613213565b33612db27f9016d09d72d40fdae2fd8ceac6b6234c7706214fd39c1cd1e609a0528c199300546001600160a01b031690565b6001600160a01b0316146119c05760405163118cdaa760e01b81523360048201526024016108eb565b612de361328c565b5f516020613dbc5f395f51905f52805460ff191681557f5db9ee0a495bf2e6ff9c91a7834c1ba4fdd244a5e8aa4e537bd38aeae4b073aa335b6040516001600160a01b03909116815260200160405180910390a150565b5f516020613ddc5f395f51905f52805460011901612e6b57604051633ee5aeb560e01b815260040160405180910390fd5b60029055565b6001600160a01b0382165f90815260096020908152604080832054600a9092528220549091818103612ec857612eab600360ff8616613ba5565b612eb6906032613bea565b612ec19060fa613c20565b9050612f37565b5f612ed760ff86166064613bea565b9050612ee4836001613c20565b612eef906005613bea565b612efa826005613bea565b612f048587613bea565b612f0f906005613bea565b612f199190613c20565b612f239190613c01565b9150612f338260646101f46132bb565b9150505b6001600160a01b0385165f8181526009602090815260409182902084905581518681529081018490527f5b88a2e3fc1a53234357ab78c104df11c33ccfa79886793654565ad70b8afb6e910160405180910390a25050505050565b60015f516020613ddc5f395f51905f5255565b306001600160a01b037f000000000000000000000000000000000000000000000000000000000000000016148061302b57507f00000000000000000000000000000000000000000000000000000000000000006001600160a01b031661301f5f516020613d9c5f395f51905f52546001600160a01b031690565b6001600160a01b031614155b156119c05760405163703e46dd60e11b815260040160405180910390fd5b612cfd612d80565b816001600160a01b03166352d1902d6040518163ffffffff1660e01b8152600401602060405180830381865afa9250505080156130ab575060408051601f3d908101601f191682019092526130a891810190613d84565b60015b6130d357604051634c9c8ce360e01b81526001600160a01b03831660048201526024016108eb565b5f516020613d9c5f395f51905f52811461310357604051632a87526960e21b8152600481018290526024016108eb565b61310d83836132e2565b505050565b306001600160a01b037f000000000000000000000000000000000000000000000000000000000000000016146119c05760405163703e46dd60e11b815260040160405180910390fd5b7f9016d09d72d40fdae2fd8ceac6b6234c7706214fd39c1cd1e609a0528c19930080546001600160a01b031981166001600160a01b03848116918217845560405192169182907f8be0079c531659141344cd1fd0a4f28419497f9722a3daafe3b4186f6b6457e0905f90a3505050565b6131d3612d00565b5f516020613dbc5f395f51905f52805460ff191660011781557f62e78cea01bee320cd4e420270b5ea74000d11b0c9f74754ebdbfc544b05a25833612e1c565b7ff0c57e16840df040f15088dc2f81fe391c3923bec73e23a9662efc9c229c6a0054600160401b900460ff166119c057604051631afcd79f60e31b815260040160405180910390fd5b612ccb613213565b61326c613213565b5f516020613dbc5f395f51905f52805460ff19169055565b612f92613213565b5f516020613dbc5f395f51905f525460ff166119c057604051638dfc202b60e01b815260040160405180910390fd5b5f828410156132cb575081612d40565b818411156132da575080612d40565b509192915050565b6132eb82613337565b6040516001600160a01b038316907fbc7cd75a20ee27fd9adebab32041f755214dbc6bffa90cc0225b39da2e5c2d3b905f90a280511561332f5761310d828261339a565b611d5c61343a565b806001600160a01b03163b5f0361336c57604051634c9c8ce360e01b81526001600160a01b03821660048201526024016108eb565b5f516020613d9c5f395f51905f5280546001600160a01b0319166001600160a01b0392909216919091179055565b60605f6133a78484613459565b90508080156133c857505f3d11806133c857505f846001600160a01b03163b115b156133dd576133d561346c565b915050610f16565b801561340757604051639996b31560e01b81526001600160a01b03851660048201526024016108eb565b3d1561341a57613415613485565b613433565b60405163d6bda27560e01b815260040160405180910390fd5b5092915050565b34156119c05760405163b398979f60e01b815260040160405180910390fd5b5f5f5f835160208501865af49392505050565b6040513d81523d5f602083013e3d602001810160405290565b6040513d5f823e3d81fd5b6040518061016001604052805f81526020015f6001600160a01b031681526020015f6001600160a01b0316815260200160608152602001606081526020015f81526020015f81526020015f60058111156134ec576134ec613587565b8152602001606081526020015f81526020015f81525090565b5f5f60408385031215613516575f5ffd5b50508035926020909101359150565b80356001600160a01b038116811461353b575f5ffd5b919050565b5f60208284031215613550575f5ffd5b612d4082613525565b5f81518084528060208401602086015e5f602082860101526020601f19601f83011685010191505092915050565b634e487b7160e01b5f52602160045260245ffd5b600681106135b757634e487b7160e01b5f52602160045260245ffd5b9052565b805182525f60208201516135da60208501826001600160a01b03169052565b5060408201516135f560408501826001600160a01b03169052565b5060608201516101606060850152613611610160850182613559565b90506080830151848203608086015261362a8282613559565b91505060a083015160a085015260c083015160c085015260e083015161365360e086018261359b565b5061010083015184820361010086015261366d8282613559565b9150506101208301516101208501526101408301516101408501528091505092915050565b5f602082016020835280845180835260408501915060408160051b8601019250602086015f5b828110156136e957603f198786030184526136d48583516135bb565b945060209384019391909101906001016136b8565b50929695505050505050565b5f5f5f60608486031215613707575f5ffd5b61371084613525565b925061371e60208501613525565b929592945050506040919091013590565b5f6020828403121561373f575f5ffd5b5035919050565b602081525f612d4060208301846135bb565b5f602082016020835280845180835260408501915060408160051b8601019250602086015f5b828110156136e957868503603f190184528151805186526020808201516001600160a01b031690870152604080820151908701526060908101516080918701829052906137cd90870182613559565b955050602093840193919091019060010161377e565b8015158114612cfd575f5ffd5b5f5f60408385031215613801575f5ffd5b823591506020830135613813816137e3565b809150509250929050565b634e487b7160e01b5f52604160045260245ffd5b5f5f67ffffffffffffffff84111561384c5761384c61381e565b50604051601f19601f85018116603f0116810181811067ffffffffffffffff8211171561387b5761387b61381e565b604052838152905080828401851015613892575f5ffd5b838360208301375f60208583010152509392505050565b5f82601f8301126138b8575f5ffd5b612d4083833560208501613832565b5f5f604083850312156138d8575f5ffd5b82359150602083013567ffffffffffffffff8111156138f5575f5ffd5b613901858286016138a9565b9150509250929050565b5f5f6040838503121561391c575f5ffd5b82359150602083013560ff81168114613813575f5ffd5b5f5f60408385031215613944575f5ffd5b61394d83613525565b9150602083013567ffffffffffffffff811115613968575f5ffd5b8301601f81018513613978575f5ffd5b61390185823560208401613832565b84815260018060a01b0384166020820152826040820152608060608201525f6139b36080830184613559565b9695505050505050565b602081525f612d406020830184613559565b5f5f604083850312156139e0575f5ffd5b6139e983613525565b946020939093013593505050565b8b81526001600160a01b038b811660208301528a166040820152610160606082018190525f90613a299083018b613559565b8281036080840152613a3b818b613559565b90508860a08401528760c0840152613a5660e084018861359b565b828103610100840152613a698187613559565b610120840195909552505061014001529998505050505050505050565b5f5f5f5f60808587031215613a99575f5ffd5b843567ffffffffffffffff811115613aaf575f5ffd5b613abb878288016138a9565b945050602085013567ffffffffffffffff811115613ad7575f5ffd5b613ae3878288016138a9565b949794965050505060408301359260600135919050565b602080825282518282018190525f918401906040840190835b81811015613b31578351835260209384019390920191600101613b13565b509095945050505050565b6020808252600f908201526e125b9d985b1a59081d185cdac81251608a1b604082015260600190565b634e487b7160e01b5f52603260045260245ffd5b634e487b7160e01b5f52601160045260245ffd5b5f60018201613b9e57613b9e613b79565b5060010190565b81810381811115610f1657610f16613b79565b600181811c90821680613bcc57607f821691505b60208210810361138057634e487b7160e01b5f52602260045260245ffd5b8082028115828204841417610f1657610f16613b79565b5f82613c1b57634e487b7160e01b5f52601260045260245ffd5b500490565b80820180821115610f1657610f16613b79565b5f60208284031215613c43575f5ffd5b8151612d40816137e3565b601f82111561310d578282111561310d57805f5260205f20601f840160051c6020851015613c7957505f5b90810190601f840160051c035f5b81811015613c9c575f83820155600101613c87565b505050505050565b815167ffffffffffffffff811115613cbe57613cbe61381e565b613cd281613ccc8454613bb8565b84613c4e565b6020601f821160018114613d04575f8315613ced5750848201515b5f19600385901b1c1916600184901b178455613d5c565b5f84815260208120601f198516915b82811015613d335787850151825560209485019460019092019101613d13565b5084821015613d5057868401515f19600387901b60f8161c191681555b505060018360011b0184555b5050505050565b604081525f613d756040830185613559565b90508260208301529392505050565b5f60208284031215613d94575f5ffd5b505191905056fe360894a13ba1a3210667c828492db98dca3e2076cc3735a920a3ca505d382bbccd5ed15c6e187e77e9aee88184c21f4f2182ab5827cb3b7e07fbedcd63f033009b779b17422d0df92223018b32b4d1fa46e071723d6817e2486d003becc55f00a26469706673582212203f702c67354fd1c9c8670aeaaa97d02f0fab6b7d79a8a4536dda3bc54614f5fe64736f6c63430008210033","linkReferences":{}},"methodIdentifiers":{"MAX_DEADLINE()":"6f0e530f","MAX_FEE_RATE()":"92f6576e","MAX_RATING()":"94e113ea","MIN_RATING()":"bb0e4ea2","MIN_REWARD()":"48ea0c03","UPGRADE_INTERFACE_VERSION()":"ad3cb1cc","acceptBid(uint256,uint256)":"02e9d5e4","accumulatedFees()":"587f5ed7","agentTasks(address,uint256)":"670ad782","cancelTask(uint256,string)":"ecb8adae","clawnchToken()":"497813d2","completeTask(uint256,uint8)":"42f19aac","createTask(string,string,uint256,uint256)":"a4a268aa","feeRate()":"978bbdb9","feeRecipient()":"46904840","getAgentStats(address)":"b5695b38","getAgentTaskHistory(address)":"add94fe7","getFeeInfo()":"0002eab7","getOpenTasks(uint256,uint256)":"164bcc26","getTask(uint256)":"1d65e77e","getTaskBids(uint256)":"2cacac9b","getTaskCount()":"c17a340e","initialize(address,address,uint256)":"1794bb3c","owner()":"8da5cb5b","pause()":"8456cb59","paused()":"5c975abb","proxiableUUID()":"52d1902d","raiseDispute(uint256,string)":"5aef573c","renounceOwnership()":"715018a6","reputationScores(address)":"fe0438b2","resolveDispute(uint256,bool)":"34b25ee2","setFeeRate(uint256)":"45596e2e","setFeeRecipient(address)":"e74b981b","submitBid(uint256,string)":"3a01135e","submitTask(uint256,string)":"776bae68","taskBids(uint256,uint256)":"5492b197","taskCount(address)":"082d1abb","tasks(uint256)":"8d977672","totalEarned(address)":"649aca4a","totalFeesCollected()":"60c6d8ae","transferOwnership(address)":"f2fde38b","unpause()":"3f4ba83a","upgradeToAndCall(address,bytes)":"4f1ef286","version()":"54fd4d50","withdrawFees()":"476343ee"},"id":1}