{"abi":[{"type":"constructor","inputs":[{"name":"_clawnchToken","type":"address","internalType":"address"}],"stateMutability":"nonpayable"},{"type":"function","name":"MAX_DEADLINE","inputs":[],"outputs":[{"name":"","type":"uint256","internalType":"uint256"}],"stateMutability":"view"},{"type":"function","name":"MAX_RATING","inputs":[],"outputs":[{"name":"","type":"uint8","internalType":"uint8"}],"stateMutability":"view"},{"type":"function","name":"MIN_RATING","inputs":[],"outputs":[{"name":"","type":"uint8","internalType":"uint8"}],"stateMutability":"view"},{"type":"function","name":"MIN_REWARD","inputs":[],"outputs":[{"name":"","type":"uint256","internalType":"uint256"}],"stateMutability":"view"},{"type":"function","name":"acceptBid","inputs":[{"name":"taskId","type":"uint256","internalType":"uint256"},{"name":"bidIndex","type":"uint256","internalType":"uint256"}],"outputs":[],"stateMutability":"nonpayable"},{"type":"function","name":"agentTasks","inputs":[{"name":"","type":"address","internalType":"address"},{"name":"","type":"uint256","internalType":"uint256"}],"outputs":[{"name":"","type":"uint256","internalType":"uint256"}],"stateMutability":"view"},{"type":"function","name":"cancelTask","inputs":[{"name":"taskId","type":"uint256","internalType":"uint256"},{"name":"reason","type":"string","internalType":"string"}],"outputs":[],"stateMutability":"nonpayable"},{"type":"function","name":"clawnchToken","inputs":[],"outputs":[{"name":"","type":"address","internalType":"contract IERC20"}],"stateMutability":"view"},{"type":"function","name":"completeTask","inputs":[{"name":"taskId","type":"uint256","internalType":"uint256"},{"name":"rating","type":"uint8","internalType":"uint8"}],"outputs":[],"stateMutability":"nonpayable"},{"type":"function","name":"createTask","inputs":[{"name":"title","type":"string","internalType":"string"},{"name":"description","type":"string","internalType":"string"},{"name":"reward","type":"uint256","internalType":"uint256"},{"name":"deadlineDays","type":"uint256","internalType":"uint256"}],"outputs":[{"name":"taskId","type":"uint256","internalType":"uint256"}],"stateMutability":"nonpayable"},{"type":"function","name":"getAgentStats","inputs":[{"name":"agent","type":"address","internalType":"address"}],"outputs":[{"name":"reputation","type":"uint256","internalType":"uint256"},{"name":"completedTasks","type":"uint256","internalType":"uint256"},{"name":"totalEarnedCLAWNCH","type":"uint256","internalType":"uint256"}],"stateMutability":"view"},{"type":"function","name":"getAgentTaskHistory","inputs":[{"name":"agent","type":"address","internalType":"address"}],"outputs":[{"name":"","type":"uint256[]","internalType":"uint256[]"}],"stateMutability":"view"},{"type":"function","name":"getOpenTasks","inputs":[{"name":"offset","type":"uint256","internalType":"uint256"},{"name":"limit","type":"uint256","internalType":"uint256"}],"outputs":[{"name":"","type":"tuple[]","internalType":"struct AgentTaskMarket.Task[]","components":[{"name":"id","type":"uint256","internalType":"uint256"},{"name":"creator","type":"address","internalType":"address"},{"name":"runner","type":"address","internalType":"address"},{"name":"title","type":"string","internalType":"string"},{"name":"description","type":"string","internalType":"string"},{"name":"reward","type":"uint256","internalType":"uint256"},{"name":"deadline","type":"uint256","internalType":"uint256"},{"name":"status","type":"uint8","internalType":"enum AgentTaskMarket.TaskStatus"},{"name":"deliverables","type":"string","internalType":"string"},{"name":"createdAt","type":"uint256","internalType":"uint256"},{"name":"completedAt","type":"uint256","internalType":"uint256"}]}],"stateMutability":"view"},{"type":"function","name":"getTask","inputs":[{"name":"taskId","type":"uint256","internalType":"uint256"}],"outputs":[{"name":"","type":"tuple","internalType":"struct AgentTaskMarket.Task","components":[{"name":"id","type":"uint256","internalType":"uint256"},{"name":"creator","type":"address","internalType":"address"},{"name":"runner","type":"address","internalType":"address"},{"name":"title","type":"string","internalType":"string"},{"name":"description","type":"string","internalType":"string"},{"name":"reward","type":"uint256","internalType":"uint256"},{"name":"deadline","type":"uint256","internalType":"uint256"},{"name":"status","type":"uint8","internalType":"enum AgentTaskMarket.TaskStatus"},{"name":"deliverables","type":"string","internalType":"string"},{"name":"createdAt","type":"uint256","internalType":"uint256"},{"name":"completedAt","type":"uint256","internalType":"uint256"}]}],"stateMutability":"view"},{"type":"function","name":"getTaskBids","inputs":[{"name":"taskId","type":"uint256","internalType":"uint256"}],"outputs":[{"name":"","type":"tuple[]","internalType":"struct AgentTaskMarket.Bid[]","components":[{"name":"taskId","type":"uint256","internalType":"uint256"},{"name":"bidder","type":"address","internalType":"address"},{"name":"timestamp","type":"uint256","internalType":"uint256"},{"name":"proposal","type":"string","internalType":"string"}]}],"stateMutability":"view"},{"type":"function","name":"getTaskCount","inputs":[],"outputs":[{"name":"","type":"uint256","internalType":"uint256"}],"stateMutability":"view"},{"type":"function","name":"reputationScores","inputs":[{"name":"","type":"address","internalType":"address"}],"outputs":[{"name":"","type":"uint256","internalType":"uint256"}],"stateMutability":"view"},{"type":"function","name":"submitBid","inputs":[{"name":"taskId","type":"uint256","internalType":"uint256"},{"name":"proposal","type":"string","internalType":"string"}],"outputs":[],"stateMutability":"nonpayable"},{"type":"function","name":"submitTask","inputs":[{"name":"taskId","type":"uint256","internalType":"uint256"},{"name":"deliverables","type":"string","internalType":"string"}],"outputs":[],"stateMutability":"nonpayable"},{"type":"function","name":"taskBids","inputs":[{"name":"","type":"uint256","internalType":"uint256"},{"name":"","type":"uint256","internalType":"uint256"}],"outputs":[{"name":"taskId","type":"uint256","internalType":"uint256"},{"name":"bidder","type":"address","internalType":"address"},{"name":"timestamp","type":"uint256","internalType":"uint256"},{"name":"proposal","type":"string","internalType":"string"}],"stateMutability":"view"},{"type":"function","name":"taskCount","inputs":[{"name":"","type":"address","internalType":"address"}],"outputs":[{"name":"","type":"uint256","internalType":"uint256"}],"stateMutability":"view"},{"type":"function","name":"tasks","inputs":[{"name":"","type":"uint256","internalType":"uint256"}],"outputs":[{"name":"id","type":"uint256","internalType":"uint256"},{"name":"creator","type":"address","internalType":"address"},{"name":"runner","type":"address","internalType":"address"},{"name":"title","type":"string","internalType":"string"},{"name":"description","type":"string","internalType":"string"},{"name":"reward","type":"uint256","internalType":"uint256"},{"name":"deadline","type":"uint256","internalType":"uint256"},{"name":"status","type":"uint8","internalType":"enum AgentTaskMarket.TaskStatus"},{"name":"deliverables","type":"string","internalType":"string"},{"name":"createdAt","type":"uint256","internalType":"uint256"},{"name":"completedAt","type":"uint256","internalType":"uint256"}],"stateMutability":"view"},{"type":"function","name":"totalEarned","inputs":[{"name":"","type":"address","internalType":"address"}],"outputs":[{"name":"","type":"uint256","internalType":"uint256"}],"stateMutability":"view"},{"type":"event","name":"BidSubmitted","inputs":[{"name":"taskId","type":"uint256","indexed":true,"internalType":"uint256"},{"name":"bidder","type":"address","indexed":true,"internalType":"address"}],"anonymous":false},{"type":"event","name":"ReputationUpdated","inputs":[{"name":"agent","type":"address","indexed":true,"internalType":"address"},{"name":"oldScore","type":"uint256","indexed":false,"internalType":"uint256"},{"name":"newScore","type":"uint256","indexed":false,"internalType":"uint256"}],"anonymous":false},{"type":"event","name":"TaskAssigned","inputs":[{"name":"taskId","type":"uint256","indexed":true,"internalType":"uint256"},{"name":"creator","type":"address","indexed":true,"internalType":"address"},{"name":"runner","type":"address","indexed":true,"internalType":"address"}],"anonymous":false},{"type":"event","name":"TaskCancelled","inputs":[{"name":"taskId","type":"uint256","indexed":true,"internalType":"uint256"},{"name":"creator","type":"address","indexed":true,"internalType":"address"},{"name":"reason","type":"string","indexed":false,"internalType":"string"}],"anonymous":false},{"type":"event","name":"TaskCompleted","inputs":[{"name":"taskId","type":"uint256","indexed":true,"internalType":"uint256"},{"name":"creator","type":"address","indexed":true,"internalType":"address"},{"name":"runner","type":"address","indexed":true,"internalType":"address"},{"name":"reward","type":"uint256","indexed":false,"internalType":"uint256"},{"name":"rating","type":"uint8","indexed":false,"internalType":"uint8"}],"anonymous":false},{"type":"event","name":"TaskCreated","inputs":[{"name":"taskId","type":"uint256","indexed":true,"internalType":"uint256"},{"name":"creator","type":"address","indexed":true,"internalType":"address"},{"name":"title","type":"string","indexed":false,"internalType":"string"},{"name":"reward","type":"uint256","indexed":false,"internalType":"uint256"}],"anonymous":false},{"type":"event","name":"TaskSubmitted","inputs":[{"name":"taskId","type":"uint256","indexed":true,"internalType":"uint256"},{"name":"runner","type":"address","indexed":true,"internalType":"address"},{"name":"deliverables","type":"string","indexed":false,"internalType":"string"}],"anonymous":false},{"type":"error","name":"InsufficientAllowance","inputs":[]},{"type":"error","name":"InvalidDeadline","inputs":[]},{"type":"error","name":"InvalidRating","inputs":[]},{"type":"error","name":"InvalidReward","inputs":[]},{"type":"error","name":"NotTaskCreator","inputs":[{"name":"taskId","type":"uint256","internalType":"uint256"}]},{"type":"error","name":"NotTaskRunner","inputs":[{"name":"taskId","type":"uint256","internalType":"uint256"}]},{"type":"error","name":"TaskAlreadyAssigned","inputs":[{"name":"taskId","type":"uint256","internalType":"uint256"}]},{"type":"error","name":"TaskNotInProgress","inputs":[{"name":"taskId","type":"uint256","internalType":"uint256"}]},{"type":"error","name":"TaskNotOpen","inputs":[{"name":"taskId","type":"uint256","internalType":"uint256"}]},{"type":"error","name":"TransferFailed","inputs":[]}],"bytecode":{"object":"0x60a060405234801561000f575f5ffd5b5060405161276838038061276883398101604081905261002e91610043565b6001600160a01b031660805260015f55610070565b5f60208284031215610053575f5ffd5b81516001600160a01b0381168114610069575f5ffd5b9392505050565b6080516126cb61009d5f395f818161022d01528181611130015281816117860152611c4a01526126cb5ff3fe608060405234801561000f575f5ffd5b5060043610610148575f3560e01c8063670ad782116100bf578063add94fe711610079578063add94fe714610330578063b5695b3814610350578063bb0e4ea2146103aa578063c17a340e146103b2578063ecb8adae146103ba578063fe0438b2146103cd575f5ffd5b8063670ad782146102a95780636f0e530f146102bc578063776bae68146102c65780638d977672146102d957806394e113ea14610303578063a4a268aa1461031d575f5ffd5b80633a01135e116101105780633a01135e146101f357806342f19aac1461020657806348ea0c0314610219578063497813d2146102285780635492b19714610267578063649aca4a1461028a575f5ffd5b806302e9d5e41461014c578063082d1abb14610161578063164bcc26146101935780631d65e77e146101b35780632cacac9b146101d3575b5f5ffd5b61015f61015a366004611ee7565b6103ec565b005b61018061016f366004611f22565b60056020525f908152604090205481565b6040519081526020015b60405180910390f35b6101a66101a1366004611ee7565b61061a565b60405161018a9190612074565b6101c66101c13660046120d7565b610a0d565b60405161018a91906120ee565b6101e66101e13660046120d7565b610ccd565b60405161018a9190612100565b61015f61020136600461222a565b610df6565b61015f61021436600461226e565b610f34565b610180670de0b6b3a764000081565b61024f7f000000000000000000000000000000000000000000000000000000000000000081565b6040516001600160a01b03909116815260200161018a565b61027a610275366004611ee7565b61126a565b60405161018a94939291906122a1565b610180610298366004611f22565b60066020525f908152604090205481565b6101806102b73660046122d7565b611340565b61018062278d0081565b61015f6102d436600461222a565b61136b565b6102ec6102e73660046120d7565b611502565b60405161018a9b9a999897969594939291906122ff565b61030b600581565b60405160ff909116815260200161018a565b61018061032b36600461238e565b61170f565b61034361033e366004611f22565b611a7e565b60405161018a9190612402565b61038f61035e366004611f22565b6001600160a01b03165f90815260046020908152604080832054600583528184205460069093529220549192909190565b6040805193845260208401929092529082015260600161018a565b61030b600181565b600154610180565b61015f6103c836600461222a565b611ae7565b6101806103db366004611f22565b60046020525f908152604090205481565b600154821061041657604051639d6bda0b60e01b8152600481018390526024015b60405180910390fd5b336001600160a01b03166001838154811061043357610433612444565b5f91825260209091206001600b9092020101546001600160a01b03161461047057604051631adc86f560e11b81526004810183905260240161040d565b5f6001600160a01b03166001838154811061048d5761048d612444565b5f91825260209091206002600b9092020101546001600160a01b0316146104ca57604051635fa3e3ab60e11b81526004810183905260240161040d565b5f828152600260205260409020805482106104fb57604051639d6bda0b60e01b81526004810184905260240161040d565b5f81838154811061050e5761050e612444565b905f5260205f2090600402016001015f9054906101000a90046001600160a01b03169050806001858154811061054657610546612444565b905f5260205f2090600b02016002015f6101000a8154816001600160a01b0302191690836001600160a01b03160217905550600180858154811061058c5761058c612444565b5f91825260209091206007600b9092020101805460ff191660018360048111156105b8576105b8611f69565b02179055506001600160a01b0381165f818152600360209081526040808320805460018101825590845291832090910187905551339187917ffe58e4bb1e9a69b912e9ef1be9463a03d5d7aa99d2116726abd48e28acc4f91e9190a450505050565b60605f805b60015481101561067f575f6001828154811061063d5761063d612444565b5f91825260209091206007600b90920201015460ff16600481111561066457610664611f69565b0361067757816106738161246c565b9250505b60010161061f565b505f6106948461068f8785612484565b611d20565b67ffffffffffffffff8111156106ac576106ac61218b565b6040519080825280602002602001820160405280156106e557816020015b6106d2611e72565b8152602001906001900390816106ca5790505b5090505f805b600154811080156106fb57508582105b15610a00575f6001828154811061071457610714612444565b5f91825260209091206007600b90920201015460ff16600481111561073b5761073b611f69565b036109ee578615610758578661075081612497565b9750506109ee565b6001818154811061076b5761076b612444565b5f9182526020918290206040805161016081018252600b9093029091018054835260018101546001600160a01b03908116948401949094526002810154909316908201526003820180549192916060840191906107c7906124ac565b80601f01602080910402602001604051908101604052809291908181526020018280546107f3906124ac565b801561083e5780601f106108155761010080835404028352916020019161083e565b820191905f5260205f20905b81548152906001019060200180831161082157829003601f168201915b50505050508152602001600482018054610857906124ac565b80601f0160208091040260200160405190810160405280929190818152602001828054610883906124ac565b80156108ce5780601f106108a5576101008083540402835291602001916108ce565b820191905f5260205f20905b8154815290600101906020018083116108b157829003601f168201915b50505091835250506005820154602082015260068201546040820152600782015460609091019060ff16600481111561090957610909611f69565b600481111561091a5761091a611f69565b815260200160088201805461092e906124ac565b80601f016020809104026020016040519081016040528092919081815260200182805461095a906124ac565b80156109a55780601f1061097c576101008083540402835291602001916109a5565b820191905f5260205f20905b81548152906001019060200180831161098857829003601f168201915b5050505050815260200160098201548152602001600a820154815250508383815181106109d4576109d4612444565b602002602001018190525081806109ea9061246c565b9250505b806109f88161246c565b9150506106eb565b5090925050505b92915050565b610a15611e72565b6001548210610a5c5760405162461bcd60e51b815260206004820152601360248201527215185cdac8191bd95cc81b9bdd08195e1a5cdd606a1b604482015260640161040d565b60018281548110610a6f57610a6f612444565b5f9182526020918290206040805161016081018252600b9093029091018054835260018101546001600160a01b0390811694840194909452600281015490931690820152600382018054919291606084019190610acb906124ac565b80601f0160208091040260200160405190810160405280929190818152602001828054610af7906124ac565b8015610b425780601f10610b1957610100808354040283529160200191610b42565b820191905f5260205f20905b815481529060010190602001808311610b2557829003601f168201915b50505050508152602001600482018054610b5b906124ac565b80601f0160208091040260200160405190810160405280929190818152602001828054610b87906124ac565b8015610bd25780601f10610ba957610100808354040283529160200191610bd2565b820191905f5260205f20905b815481529060010190602001808311610bb557829003601f168201915b50505091835250506005820154602082015260068201546040820152600782015460609091019060ff166004811115610c0d57610c0d611f69565b6004811115610c1e57610c1e611f69565b8152602001600882018054610c32906124ac565b80601f0160208091040260200160405190810160405280929190818152602001828054610c5e906124ac565b8015610ca95780601f10610c8057610100808354040283529160200191610ca9565b820191905f5260205f20905b815481529060010190602001808311610c8c57829003601f168201915b5050505050815260200160098201548152602001600a820154815250509050919050565b606060025f8381526020019081526020015f20805480602002602001604051908101604052809291908181526020015f905b82821015610deb575f84815260209081902060408051608081018252600486029092018054835260018101546001600160a01b031693830193909352600283015490820152600382018054919291606084019190610d5c906124ac565b80601f0160208091040260200160405190810160405280929190818152602001828054610d88906124ac565b8015610dd35780601f10610daa57610100808354040283529160200191610dd3565b820191905f5260205f20905b815481529060010190602001808311610db657829003601f168201915b50505050508152505081526020019060010190610cff565b505050509050919050565b6001548210610e1b57604051639d6bda0b60e01b81526004810183905260240161040d565b5f60018381548110610e2f57610e2f612444565b5f91825260209091206007600b90920201015460ff166004811115610e5657610e56611f69565b14610e7757604051639d6bda0b60e01b81526004810183905260240161040d565b5f82815260026020818152604080842081516080810183528781523381850190815242938201938452606082018881528354600180820186559489529590972082516004909602019485555191840180546001600160a01b0319166001600160a01b039093169290921790915590519282019290925591519091906003820190610f01908261253b565b505060405133915083907f14f32a2464bd02d81cc866ab8a4ab09360c685fc8156837dcdf398208674d12b905f90a35050565b6001548210610f595760405163e9c2cf2160e01b81526004810183905260240161040d565b336001600160a01b031660018381548110610f7657610f76612444565b5f91825260209091206001600b9092020101546001600160a01b031614610fb357604051631adc86f560e11b81526004810183905260240161040d565b600260018381548110610fc857610fc8612444565b5f91825260209091206007600b90920201015460ff166004811115610fef57610fef611f69565b146110105760405163e9c2cf2160e01b81526004810183905260240161040d565b600160ff821610806110255750600560ff8216115b156110435760405163d29df2dd60e01b815260040160405180910390fd5b5f6001838154811061105757611057612444565b5f918252602082206002600b909202010154600180546001600160a01b039092169350908590811061108b5761108b612444565b905f5260205f2090600b02016005015490506003600185815481106110b2576110b2612444565b5f91825260209091206007600b9092020101805460ff191660018360048111156110de576110de611f69565b021790555042600185815481106110f7576110f7612444565b5f9182526020909120600b90910201600a015560405163a9059cbb60e01b81526001600160a01b038381166004830152602482018390527f0000000000000000000000000000000000000000000000000000000000000000169063a9059cbb906044016020604051808303815f875af1158015611176573d5f5f3e3d5ffd5b505050506040513d601f19601f8201168201806040525081019061119a91906125fa565b6111b7576040516312171d8360e31b815260040160405180910390fd5b6111c18284611d37565b6001600160a01b0382165f9081526005602052604081208054600192906111e9908490612619565b90915550506001600160a01b0382165f9081526006602052604081208054839290611215908490612619565b90915550506040805182815260ff851660208201526001600160a01b03841691339187917f8fafb723282164ed95f6ab01b19672c9e500cb6966e1e57bfd41567dcf2290db910160405180910390a450505050565b6002602052815f5260405f208181548110611283575f80fd5b5f91825260209091206004909102018054600182015460028301546003840180549396506001600160a01b03909216945092916112bf906124ac565b80601f01602080910402602001604051908101604052809291908181526020018280546112eb906124ac565b80156113365780601f1061130d57610100808354040283529160200191611336565b820191905f5260205f20905b81548152906001019060200180831161131957829003601f168201915b5050505050905084565b6003602052815f5260405f208181548110611359575f80fd5b905f5260205f20015f91509150505481565b60015482106113905760405163e9c2cf2160e01b81526004810183905260240161040d565b336001600160a01b0316600183815481106113ad576113ad612444565b5f91825260209091206002600b9092020101546001600160a01b0316146113ea57604051635ce925d760e01b81526004810183905260240161040d565b60018083815481106113fe576113fe612444565b5f91825260209091206007600b90920201015460ff16600481111561142557611425611f69565b146114465760405163e9c2cf2160e01b81526004810183905260240161040d565b60026001838154811061145b5761145b612444565b5f91825260209091206007600b9092020101805460ff1916600183600481111561148757611487611f69565b021790555080600183815481106114a0576114a0612444565b905f5260205f2090600b020160080190816114bb919061253b565b50336001600160a01b0316827f9989978868daa22b7a8a054a31e686ab83a420750a2a60b58facca87bf7c1219836040516114f6919061262c565b60405180910390a35050565b60018181548110611511575f80fd5b5f9182526020909120600b909102018054600182015460028301546003840180549395506001600160a01b0392831694929091169261154f906124ac565b80601f016020809104026020016040519081016040528092919081815260200182805461157b906124ac565b80156115c65780601f1061159d576101008083540402835291602001916115c6565b820191905f5260205f20905b8154815290600101906020018083116115a957829003601f168201915b5050505050908060040180546115db906124ac565b80601f0160208091040260200160405190810160405280929190818152602001828054611607906124ac565b80156116525780601f1061162957610100808354040283529160200191611652565b820191905f5260205f20905b81548152906001019060200180831161163557829003601f168201915b5050506005840154600685015460078601546008870180549697939692955060ff909116935090611682906124ac565b80601f01602080910402602001604051908101604052809291908181526020018280546116ae906124ac565b80156116f95780601f106116d0576101008083540402835291602001916116f9565b820191905f5260205f20905b8154815290600101906020018083116116dc57829003601f168201915b50505050509080600901549080600a015490508b565b5f670de0b6b3a7640000831015611739576040516314414f4160e11b815260040160405180910390fd5b8115806117465750601e82115b1561176457604051631da7447960e21b815260040160405180910390fd5b6040516323b872dd60e01b8152336004820152306024820152604481018490527f00000000000000000000000000000000000000000000000000000000000000006001600160a01b0316906323b872dd906064016020604051808303815f875af11580156117d4573d5f5f3e3d5ffd5b505050506040513d601f19601f820116820180604052508101906117f891906125fa565b611815576040516312171d8360e31b815260040160405180910390fd5b5f805490806118238361246c565b9190505590505f604051806101600160405280838152602001336001600160a01b031681526020015f6001600160a01b03168152602001878152602001868152602001858152602001846201518061187b919061263e565b6118859042612619565b81526020015f815260408051602080820183525f8083528185019290925242838501526060938401829052600180548082018255925284517fb10e2d527612073b26eecdfd717e6a320cf44b4afac2b0732d9fcbe2b7fa0cf6600b909302928301908155908501517fb10e2d527612073b26eecdfd717e6a320cf44b4afac2b0732d9fcbe2b7fa0cf7830180546001600160a01b03199081166001600160a01b0393841617909155938601517fb10e2d527612073b26eecdfd717e6a320cf44b4afac2b0732d9fcbe2b7fa0cf88401805490951691161790925591830151929350839290917fb10e2d527612073b26eecdfd717e6a320cf44b4afac2b0732d9fcbe2b7fa0cf90190611997908261253b565b50608082015160048201906119ac908261253b565b5060a0820151600582015560c0820151600682015560e082015160078201805460ff191660018360048111156119e4576119e4611f69565b021790555061010082015160088201906119fe908261253b565b50610120820151600982015561014090910151600a90910155335f818152600360209081526040808320805460018101825590845291909220018490555183907f9e3c9757475c00b86393e183b68033bb76e48fa164849c7428ad17f62e1954a790611a6d908a908990612655565b60405180910390a350949350505050565b6001600160a01b0381165f90815260036020908152604091829020805483518184028101840190945280845260609392830182828015611adb57602002820191905f5260205f20905b815481526020019060010190808311611ac7575b50505050509050919050565b6001548210611b0c57604051639d6bda0b60e01b81526004810183905260240161040d565b336001600160a01b031660018381548110611b2957611b29612444565b5f91825260209091206001600b9092020101546001600160a01b031614611b6657604051631adc86f560e11b81526004810183905260240161040d565b5f60018381548110611b7a57611b7a612444565b5f91825260209091206007600b90920201015460ff166004811115611ba157611ba1611f69565b14611bc257604051639d6bda0b60e01b81526004810183905260240161040d565b5f60018381548110611bd657611bd6612444565b905f5260205f2090600b0201600501549050600460018481548110611bfd57611bfd612444565b5f91825260209091206007600b9092020101805460ff19166001836004811115611c2957611c29611f69565b021790555060405163a9059cbb60e01b8152336004820152602481018290527f00000000000000000000000000000000000000000000000000000000000000006001600160a01b03169063a9059cbb906044016020604051808303815f875af1158015611c98573d5f5f3e3d5ffd5b505050506040513d601f19601f82011682018060405250810190611cbc91906125fa565b611cd9576040516312171d8360e31b815260040160405180910390fd5b336001600160a01b0316837fb648cd5c56d5badeeb864e8605fefa22133eaae000baee4782e7a3d2a350dead84604051611d13919061262c565b60405180910390a3505050565b5f818310611d2e5781611d30565b825b9392505050565b6001600160a01b0382165f9081526004602090815260408083205460059092528220549091818103611d8e57611d71600360ff8616612484565b611d7c90603261263e565b611d879060fa612619565b9050611df0565b81611d9a81600561263e565b611da860ff8716606461263e565b611db390600561263e565b611dbe600184612484565b611dc8908761263e565b611dd29190612619565b611ddc9190612676565b9150611dec8260646101f4611e4b565b9150505b6001600160a01b0385165f8181526004602090815260409182902084905581518681529081018490527f5b88a2e3fc1a53234357ab78c104df11c33ccfa79886793654565ad70b8afb6e910160405180910390a25050505050565b5f82841015611e5b575081611d30565b81841115611e6a575080611d30565b509192915050565b6040518061016001604052805f81526020015f6001600160a01b031681526020015f6001600160a01b0316815260200160608152602001606081526020015f81526020015f81526020015f6004811115611ece57611ece611f69565b8152602001606081526020015f81526020015f81525090565b5f5f60408385031215611ef8575f5ffd5b50508035926020909101359150565b80356001600160a01b0381168114611f1d575f5ffd5b919050565b5f60208284031215611f32575f5ffd5b611d3082611f07565b5f81518084528060208401602086015e5f602082860101526020601f19601f83011685010191505092915050565b634e487b7160e01b5f52602160045260245ffd5b60058110611f9957634e487b7160e01b5f52602160045260245ffd5b9052565b805182525f6020820151611fbc60208501826001600160a01b03169052565b506040820151611fd760408501826001600160a01b03169052565b5060608201516101606060850152611ff3610160850182611f3b565b90506080830151848203608086015261200c8282611f3b565b91505060a083015160a085015260c083015160c085015260e083015161203560e0860182611f7d565b5061010083015184820361010086015261204f8282611f3b565b9150506101208301516101208501526101408301516101408501528091505092915050565b5f602082016020835280845180835260408501915060408160051b8601019250602086015f5b828110156120cb57603f198786030184526120b6858351611f9d565b9450602093840193919091019060010161209a565b50929695505050505050565b5f602082840312156120e7575f5ffd5b5035919050565b602081525f611d306020830184611f9d565b5f602082016020835280845180835260408501915060408160051b8601019250602086015f5b828110156120cb57868503603f190184528151805186526020808201516001600160a01b0316908701526040808201519087015260609081015160809187018290529061217590870182611f3b565b9550506020938401939190910190600101612126565b634e487b7160e01b5f52604160045260245ffd5b5f82601f8301126121ae575f5ffd5b813567ffffffffffffffff8111156121c8576121c861218b565b604051601f8201601f19908116603f0116810167ffffffffffffffff811182821017156121f7576121f761218b565b60405281815283820160200185101561220e575f5ffd5b816020850160208301375f918101602001919091529392505050565b5f5f6040838503121561223b575f5ffd5b82359150602083013567ffffffffffffffff811115612258575f5ffd5b6122648582860161219f565b9150509250929050565b5f5f6040838503121561227f575f5ffd5b82359150602083013560ff81168114612296575f5ffd5b809150509250929050565b84815260018060a01b0384166020820152826040820152608060608201525f6122cd6080830184611f3b565b9695505050505050565b5f5f604083850312156122e8575f5ffd5b6122f183611f07565b946020939093013593505050565b8b81526001600160a01b038b811660208301528a166040820152610160606082018190525f906123319083018b611f3b565b8281036080840152612343818b611f3b565b90508860a08401528760c084015261235e60e0840188611f7d565b8281036101008401526123718187611f3b565b610120840195909552505061014001529998505050505050505050565b5f5f5f5f608085870312156123a1575f5ffd5b843567ffffffffffffffff8111156123b7575f5ffd5b6123c38782880161219f565b945050602085013567ffffffffffffffff8111156123df575f5ffd5b6123eb8782880161219f565b949794965050505060408301359260600135919050565b602080825282518282018190525f918401906040840190835b8181101561243957835183526020938401939092019160010161241b565b509095945050505050565b634e487b7160e01b5f52603260045260245ffd5b634e487b7160e01b5f52601160045260245ffd5b5f6001820161247d5761247d612458565b5060010190565b81810381811115610a0757610a07612458565b5f816124a5576124a5612458565b505f190190565b600181811c908216806124c057607f821691505b6020821081036124de57634e487b7160e01b5f52602260045260245ffd5b50919050565b601f821115612536578282111561253657805f5260205f20601f840160051c602085101561250f57505f5b90810190601f840160051c035f5b81811015612532575f8382015560010161251d565b5050505b505050565b815167ffffffffffffffff8111156125555761255561218b565b6125698161256384546124ac565b846124e4565b6020601f82116001811461259b575f83156125845750848201515b5f19600385901b1c1916600184901b1784556125f3565b5f84815260208120601f198516915b828110156125ca57878501518255602094850194600190920191016125aa565b50848210156125e757868401515f19600387901b60f8161c191681555b505060018360011b0184555b5050505050565b5f6020828403121561260a575f5ffd5b81518015158114611d30575f5ffd5b80820180821115610a0757610a07612458565b602081525f611d306020830184611f3b565b8082028115828204841417610a0757610a07612458565b604081525f6126676040830185611f3b565b90508260208301529392505050565b5f8261269057634e487b7160e01b5f52601260045260245ffd5b50049056fea26469706673582212205076fe917124abdd7aaa475271e090e21caf25eec29632b692c0d5f0f6888ed064736f6c63430008210033","linkReferences":{}},"methodIdentifiers":{"MAX_DEADLINE()":"6f0e530f","MAX_RATING()":"94e113ea","MIN_RATING()":"bb0e4ea2","MIN_REWARD()":"48ea0c03","acceptBid(uint256,uint256)":"02e9d5e4","agentTasks(address,uint256)":"670ad782","cancelTask(uint256,string)":"ecb8adae","clawnchToken()":"497813d2","completeTask(uint256,uint8)":"42f19aac","createTask(string,string,uint256,uint256)":"a4a268aa","getAgentStats(address)":"b5695b38","getAgentTaskHistory(address)":"add94fe7","getOpenTasks(uint256,uint256)":"164bcc26","getTask(uint256)":"1d65e77e","getTaskBids(uint256)":"2cacac9b","getTaskCount()":"c17a340e","reputationScores(address)":"fe0438b2","submitBid(uint256,string)":"3a01135e","submitTask(uint256,string)":"776bae68","taskBids(uint256,uint256)":"5492b197","taskCount(address)":"082d1abb","tasks(uint256)":"8d977672","totalEarned(address)":"649aca4a"},"id":0}