{"abi":[{"type":"constructor","inputs":[{"name":"_usdcToken","type":"address","internalType":"address"}],"stateMutability":"nonpayable"},{"type":"function","name":"MAX_DEADLINE","inputs":[],"outputs":[{"name":"","type":"uint256","internalType":"uint256"}],"stateMutability":"view"},{"type":"function","name":"MAX_RATING","inputs":[],"outputs":[{"name":"","type":"uint8","internalType":"uint8"}],"stateMutability":"view"},{"type":"function","name":"MIN_RATING","inputs":[],"outputs":[{"name":"","type":"uint8","internalType":"uint8"}],"stateMutability":"view"},{"type":"function","name":"MIN_REWARD","inputs":[],"outputs":[{"name":"","type":"uint256","internalType":"uint256"}],"stateMutability":"view"},{"type":"function","name":"acceptBid","inputs":[{"name":"taskId","type":"uint256","internalType":"uint256"},{"name":"bidIndex","type":"uint256","internalType":"uint256"}],"outputs":[],"stateMutability":"nonpayable"},{"type":"function","name":"agentTasks","inputs":[{"name":"","type":"address","internalType":"address"},{"name":"","type":"uint256","internalType":"uint256"}],"outputs":[{"name":"","type":"uint256","internalType":"uint256"}],"stateMutability":"view"},{"type":"function","name":"cancelTask","inputs":[{"name":"taskId","type":"uint256","internalType":"uint256"},{"name":"reason","type":"string","internalType":"string"}],"outputs":[],"stateMutability":"nonpayable"},{"type":"function","name":"completeTask","inputs":[{"name":"taskId","type":"uint256","internalType":"uint256"},{"name":"rating","type":"uint8","internalType":"uint8"}],"outputs":[],"stateMutability":"nonpayable"},{"type":"function","name":"createTask","inputs":[{"name":"title","type":"string","internalType":"string"},{"name":"description","type":"string","internalType":"string"},{"name":"reward","type":"uint256","internalType":"uint256"},{"name":"deadlineDays","type":"uint256","internalType":"uint256"}],"outputs":[{"name":"taskId","type":"uint256","internalType":"uint256"}],"stateMutability":"nonpayable"},{"type":"function","name":"getAgentStats","inputs":[{"name":"agent","type":"address","internalType":"address"}],"outputs":[{"name":"reputation","type":"uint256","internalType":"uint256"},{"name":"completedTasks","type":"uint256","internalType":"uint256"},{"name":"totalEarnedUSDC","type":"uint256","internalType":"uint256"}],"stateMutability":"view"},{"type":"function","name":"getAgentTaskHistory","inputs":[{"name":"agent","type":"address","internalType":"address"}],"outputs":[{"name":"","type":"uint256[]","internalType":"uint256[]"}],"stateMutability":"view"},{"type":"function","name":"getOpenTasks","inputs":[{"name":"offset","type":"uint256","internalType":"uint256"},{"name":"limit","type":"uint256","internalType":"uint256"}],"outputs":[{"name":"","type":"tuple[]","internalType":"struct AgentTaskMarket.Task[]","components":[{"name":"id","type":"uint256","internalType":"uint256"},{"name":"creator","type":"address","internalType":"address"},{"name":"runner","type":"address","internalType":"address"},{"name":"title","type":"string","internalType":"string"},{"name":"description","type":"string","internalType":"string"},{"name":"reward","type":"uint256","internalType":"uint256"},{"name":"deadline","type":"uint256","internalType":"uint256"},{"name":"status","type":"uint8","internalType":"enum AgentTaskMarket.TaskStatus"},{"name":"deliverables","type":"string","internalType":"string"},{"name":"createdAt","type":"uint256","internalType":"uint256"},{"name":"completedAt","type":"uint256","internalType":"uint256"}]}],"stateMutability":"view"},{"type":"function","name":"getTask","inputs":[{"name":"taskId","type":"uint256","internalType":"uint256"}],"outputs":[{"name":"","type":"tuple","internalType":"struct AgentTaskMarket.Task","components":[{"name":"id","type":"uint256","internalType":"uint256"},{"name":"creator","type":"address","internalType":"address"},{"name":"runner","type":"address","internalType":"address"},{"name":"title","type":"string","internalType":"string"},{"name":"description","type":"string","internalType":"string"},{"name":"reward","type":"uint256","internalType":"uint256"},{"name":"deadline","type":"uint256","internalType":"uint256"},{"name":"status","type":"uint8","internalType":"enum AgentTaskMarket.TaskStatus"},{"name":"deliverables","type":"string","internalType":"string"},{"name":"createdAt","type":"uint256","internalType":"uint256"},{"name":"completedAt","type":"uint256","internalType":"uint256"}]}],"stateMutability":"view"},{"type":"function","name":"getTaskBids","inputs":[{"name":"taskId","type":"uint256","internalType":"uint256"}],"outputs":[{"name":"","type":"tuple[]","internalType":"struct AgentTaskMarket.Bid[]","components":[{"name":"taskId","type":"uint256","internalType":"uint256"},{"name":"bidder","type":"address","internalType":"address"},{"name":"timestamp","type":"uint256","internalType":"uint256"},{"name":"proposal","type":"string","internalType":"string"}]}],"stateMutability":"view"},{"type":"function","name":"getTaskCount","inputs":[],"outputs":[{"name":"","type":"uint256","internalType":"uint256"}],"stateMutability":"view"},{"type":"function","name":"reputationScores","inputs":[{"name":"","type":"address","internalType":"address"}],"outputs":[{"name":"","type":"uint256","internalType":"uint256"}],"stateMutability":"view"},{"type":"function","name":"submitBid","inputs":[{"name":"taskId","type":"uint256","internalType":"uint256"},{"name":"proposal","type":"string","internalType":"string"}],"outputs":[],"stateMutability":"nonpayable"},{"type":"function","name":"submitTask","inputs":[{"name":"taskId","type":"uint256","internalType":"uint256"},{"name":"deliverables","type":"string","internalType":"string"}],"outputs":[],"stateMutability":"nonpayable"},{"type":"function","name":"taskBids","inputs":[{"name":"","type":"uint256","internalType":"uint256"},{"name":"","type":"uint256","internalType":"uint256"}],"outputs":[{"name":"taskId","type":"uint256","internalType":"uint256"},{"name":"bidder","type":"address","internalType":"address"},{"name":"timestamp","type":"uint256","internalType":"uint256"},{"name":"proposal","type":"string","internalType":"string"}],"stateMutability":"view"},{"type":"function","name":"taskCount","inputs":[{"name":"","type":"address","internalType":"address"}],"outputs":[{"name":"","type":"uint256","internalType":"uint256"}],"stateMutability":"view"},{"type":"function","name":"tasks","inputs":[{"name":"","type":"uint256","internalType":"uint256"}],"outputs":[{"name":"id","type":"uint256","internalType":"uint256"},{"name":"creator","type":"address","internalType":"address"},{"name":"runner","type":"address","internalType":"address"},{"name":"title","type":"string","internalType":"string"},{"name":"description","type":"string","internalType":"string"},{"name":"reward","type":"uint256","internalType":"uint256"},{"name":"deadline","type":"uint256","internalType":"uint256"},{"name":"status","type":"uint8","internalType":"enum AgentTaskMarket.TaskStatus"},{"name":"deliverables","type":"string","internalType":"string"},{"name":"createdAt","type":"uint256","internalType":"uint256"},{"name":"completedAt","type":"uint256","internalType":"uint256"}],"stateMutability":"view"},{"type":"function","name":"totalEarned","inputs":[{"name":"","type":"address","internalType":"address"}],"outputs":[{"name":"","type":"uint256","internalType":"uint256"}],"stateMutability":"view"},{"type":"function","name":"usdcToken","inputs":[],"outputs":[{"name":"","type":"address","internalType":"contract IERC20"}],"stateMutability":"view"},{"type":"event","name":"BidSubmitted","inputs":[{"name":"taskId","type":"uint256","indexed":true,"internalType":"uint256"},{"name":"bidder","type":"address","indexed":true,"internalType":"address"}],"anonymous":false},{"type":"event","name":"ReputationUpdated","inputs":[{"name":"agent","type":"address","indexed":true,"internalType":"address"},{"name":"oldScore","type":"uint256","indexed":false,"internalType":"uint256"},{"name":"newScore","type":"uint256","indexed":false,"internalType":"uint256"}],"anonymous":false},{"type":"event","name":"TaskAssigned","inputs":[{"name":"taskId","type":"uint256","indexed":true,"internalType":"uint256"},{"name":"creator","type":"address","indexed":true,"internalType":"address"},{"name":"runner","type":"address","indexed":true,"internalType":"address"}],"anonymous":false},{"type":"event","name":"TaskCancelled","inputs":[{"name":"taskId","type":"uint256","indexed":true,"internalType":"uint256"},{"name":"creator","type":"address","indexed":true,"internalType":"address"},{"name":"reason","type":"string","indexed":false,"internalType":"string"}],"anonymous":false},{"type":"event","name":"TaskCompleted","inputs":[{"name":"taskId","type":"uint256","indexed":true,"internalType":"uint256"},{"name":"creator","type":"address","indexed":true,"internalType":"address"},{"name":"runner","type":"address","indexed":true,"internalType":"address"},{"name":"reward","type":"uint256","indexed":false,"internalType":"uint256"},{"name":"rating","type":"uint8","indexed":false,"internalType":"uint8"}],"anonymous":false},{"type":"event","name":"TaskCreated","inputs":[{"name":"taskId","type":"uint256","indexed":true,"internalType":"uint256"},{"name":"creator","type":"address","indexed":true,"internalType":"address"},{"name":"title","type":"string","indexed":false,"internalType":"string"},{"name":"reward","type":"uint256","indexed":false,"internalType":"uint256"}],"anonymous":false},{"type":"event","name":"TaskSubmitted","inputs":[{"name":"taskId","type":"uint256","indexed":true,"internalType":"uint256"},{"name":"runner","type":"address","indexed":true,"internalType":"address"},{"name":"deliverables","type":"string","indexed":false,"internalType":"string"}],"anonymous":false},{"type":"error","name":"InsufficientAllowance","inputs":[]},{"type":"error","name":"InvalidDeadline","inputs":[]},{"type":"error","name":"InvalidRating","inputs":[]},{"type":"error","name":"InvalidReward","inputs":[]},{"type":"error","name":"NotTaskCreator","inputs":[{"name":"taskId","type":"uint256","internalType":"uint256"}]},{"type":"error","name":"NotTaskRunner","inputs":[{"name":"taskId","type":"uint256","internalType":"uint256"}]},{"type":"error","name":"TaskAlreadyAssigned","inputs":[{"name":"taskId","type":"uint256","internalType":"uint256"}]},{"type":"error","name":"TaskNotInProgress","inputs":[{"name":"taskId","type":"uint256","internalType":"uint256"}]},{"type":"error","name":"TaskNotOpen","inputs":[{"name":"taskId","type":"uint256","internalType":"uint256"}]},{"type":"error","name":"TransferFailed","inputs":[]}],"bytecode":{"object":"0x60a060405234801561000f575f5ffd5b5060405161275f38038061275f83398101604081905261002e91610043565b6001600160a01b031660805260015f55610070565b5f60208284031215610053575f5ffd5b81516001600160a01b0381168114610069575f5ffd5b9392505050565b6080516126c261009d5f395f81816101980152818161112b0152818161177c0152611c4101526126c25ff3fe608060405234801561000f575f5ffd5b5060043610610148575f3560e01c8063670ad782116100bf578063add94fe711610079578063add94fe71461032b578063b5695b381461034b578063bb0e4ea2146103a5578063c17a340e146103ad578063ecb8adae146103b5578063fe0438b2146103c8575f5ffd5b8063670ad782146102a45780636f0e530f146102b7578063776bae68146102c15780638d977672146102d457806394e113ea146102fe578063a4a268aa14610318575f5ffd5b80632cacac9b116101105780632cacac9b146102125780633a01135e1461023257806342f19aac1461024557806348ea0c03146102585780635492b19714610262578063649aca4a14610285575f5ffd5b806302e9d5e41461014c578063082d1abb1461016157806311eac85514610193578063164bcc26146101d25780631d65e77e146101f2575b5f5ffd5b61015f61015a366004611ede565b6103e7565b005b61018061016f366004611f19565b60056020525f908152604090205481565b6040519081526020015b60405180910390f35b6101ba7f000000000000000000000000000000000000000000000000000000000000000081565b6040516001600160a01b03909116815260200161018a565b6101e56101e0366004611ede565b610615565b60405161018a919061206b565b6102056102003660046120ce565b610a08565b60405161018a91906120e5565b6102256102203660046120ce565b610cc8565b60405161018a91906120f7565b61015f610240366004612221565b610df1565b61015f610253366004612265565b610f2f565b610180620f424081565b610275610270366004611ede565b611265565b60405161018a9493929190612298565b610180610293366004611f19565b60066020525f908152604090205481565b6101806102b23660046122ce565b61133b565b61018062278d0081565b61015f6102cf366004612221565b611366565b6102e76102e23660046120ce565b6114fd565b60405161018a9b9a999897969594939291906122f6565b610306600581565b60405160ff909116815260200161018a565b610180610326366004612385565b61170a565b61033e610339366004611f19565b611a75565b60405161018a91906123f9565b61038a610359366004611f19565b6001600160a01b03165f90815260046020908152604080832054600583528184205460069093529220549192909190565b6040805193845260208401929092529082015260600161018a565b610306600181565b600154610180565b61015f6103c3366004612221565b611ade565b6101806103d6366004611f19565b60046020525f908152604090205481565b600154821061041157604051639d6bda0b60e01b8152600481018390526024015b60405180910390fd5b336001600160a01b03166001838154811061042e5761042e61243b565b5f91825260209091206001600b9092020101546001600160a01b03161461046b57604051631adc86f560e11b815260048101839052602401610408565b5f6001600160a01b0316600183815481106104885761048861243b565b5f91825260209091206002600b9092020101546001600160a01b0316146104c557604051635fa3e3ab60e11b815260048101839052602401610408565b5f828152600260205260409020805482106104f657604051639d6bda0b60e01b815260048101849052602401610408565b5f8183815481106105095761050961243b565b905f5260205f2090600402016001015f9054906101000a90046001600160a01b0316905080600185815481106105415761054161243b565b905f5260205f2090600b02016002015f6101000a8154816001600160a01b0302191690836001600160a01b0316021790555060018085815481106105875761058761243b565b5f91825260209091206007600b9092020101805460ff191660018360048111156105b3576105b3611f60565b02179055506001600160a01b0381165f818152600360209081526040808320805460018101825590845291832090910187905551339187917ffe58e4bb1e9a69b912e9ef1be9463a03d5d7aa99d2116726abd48e28acc4f91e9190a450505050565b60605f805b60015481101561067a575f600182815481106106385761063861243b565b5f91825260209091206007600b90920201015460ff16600481111561065f5761065f611f60565b03610672578161066e81612463565b9250505b60010161061a565b505f61068f8461068a878561247b565b611d17565b67ffffffffffffffff8111156106a7576106a7612182565b6040519080825280602002602001820160405280156106e057816020015b6106cd611e69565b8152602001906001900390816106c55790505b5090505f805b600154811080156106f657508582105b156109fb575f6001828154811061070f5761070f61243b565b5f91825260209091206007600b90920201015460ff16600481111561073657610736611f60565b036109e9578615610753578661074b8161248e565b9750506109e9565b600181815481106107665761076661243b565b5f9182526020918290206040805161016081018252600b9093029091018054835260018101546001600160a01b03908116948401949094526002810154909316908201526003820180549192916060840191906107c2906124a3565b80601f01602080910402602001604051908101604052809291908181526020018280546107ee906124a3565b80156108395780601f1061081057610100808354040283529160200191610839565b820191905f5260205f20905b81548152906001019060200180831161081c57829003601f168201915b50505050508152602001600482018054610852906124a3565b80601f016020809104026020016040519081016040528092919081815260200182805461087e906124a3565b80156108c95780601f106108a0576101008083540402835291602001916108c9565b820191905f5260205f20905b8154815290600101906020018083116108ac57829003601f168201915b50505091835250506005820154602082015260068201546040820152600782015460609091019060ff16600481111561090457610904611f60565b600481111561091557610915611f60565b8152602001600882018054610929906124a3565b80601f0160208091040260200160405190810160405280929190818152602001828054610955906124a3565b80156109a05780601f10610977576101008083540402835291602001916109a0565b820191905f5260205f20905b81548152906001019060200180831161098357829003601f168201915b5050505050815260200160098201548152602001600a820154815250508383815181106109cf576109cf61243b565b602002602001018190525081806109e590612463565b9250505b806109f381612463565b9150506106e6565b5090925050505b92915050565b610a10611e69565b6001548210610a575760405162461bcd60e51b815260206004820152601360248201527215185cdac8191bd95cc81b9bdd08195e1a5cdd606a1b6044820152606401610408565b60018281548110610a6a57610a6a61243b565b5f9182526020918290206040805161016081018252600b9093029091018054835260018101546001600160a01b0390811694840194909452600281015490931690820152600382018054919291606084019190610ac6906124a3565b80601f0160208091040260200160405190810160405280929190818152602001828054610af2906124a3565b8015610b3d5780601f10610b1457610100808354040283529160200191610b3d565b820191905f5260205f20905b815481529060010190602001808311610b2057829003601f168201915b50505050508152602001600482018054610b56906124a3565b80601f0160208091040260200160405190810160405280929190818152602001828054610b82906124a3565b8015610bcd5780601f10610ba457610100808354040283529160200191610bcd565b820191905f5260205f20905b815481529060010190602001808311610bb057829003601f168201915b50505091835250506005820154602082015260068201546040820152600782015460609091019060ff166004811115610c0857610c08611f60565b6004811115610c1957610c19611f60565b8152602001600882018054610c2d906124a3565b80601f0160208091040260200160405190810160405280929190818152602001828054610c59906124a3565b8015610ca45780601f10610c7b57610100808354040283529160200191610ca4565b820191905f5260205f20905b815481529060010190602001808311610c8757829003601f168201915b5050505050815260200160098201548152602001600a820154815250509050919050565b606060025f8381526020019081526020015f20805480602002602001604051908101604052809291908181526020015f905b82821015610de6575f84815260209081902060408051608081018252600486029092018054835260018101546001600160a01b031693830193909352600283015490820152600382018054919291606084019190610d57906124a3565b80601f0160208091040260200160405190810160405280929190818152602001828054610d83906124a3565b8015610dce5780601f10610da557610100808354040283529160200191610dce565b820191905f5260205f20905b815481529060010190602001808311610db157829003601f168201915b50505050508152505081526020019060010190610cfa565b505050509050919050565b6001548210610e1657604051639d6bda0b60e01b815260048101839052602401610408565b5f60018381548110610e2a57610e2a61243b565b5f91825260209091206007600b90920201015460ff166004811115610e5157610e51611f60565b14610e7257604051639d6bda0b60e01b815260048101839052602401610408565b5f82815260026020818152604080842081516080810183528781523381850190815242938201938452606082018881528354600180820186559489529590972082516004909602019485555191840180546001600160a01b0319166001600160a01b039093169290921790915590519282019290925591519091906003820190610efc9082612532565b505060405133915083907f14f32a2464bd02d81cc866ab8a4ab09360c685fc8156837dcdf398208674d12b905f90a35050565b6001548210610f545760405163e9c2cf2160e01b815260048101839052602401610408565b336001600160a01b031660018381548110610f7157610f7161243b565b5f91825260209091206001600b9092020101546001600160a01b031614610fae57604051631adc86f560e11b815260048101839052602401610408565b600260018381548110610fc357610fc361243b565b5f91825260209091206007600b90920201015460ff166004811115610fea57610fea611f60565b1461100b5760405163e9c2cf2160e01b815260048101839052602401610408565b600160ff821610806110205750600560ff8216115b1561103e5760405163d29df2dd60e01b815260040160405180910390fd5b5f600183815481106110525761105261243b565b5f918252602082206002600b909202010154600180546001600160a01b03909216935090859081106110865761108661243b565b905f5260205f2090600b02016005015490506003600185815481106110ad576110ad61243b565b5f91825260209091206007600b9092020101805460ff191660018360048111156110d9576110d9611f60565b021790555042600185815481106110f2576110f261243b565b5f9182526020909120600b90910201600a015560405163a9059cbb60e01b81526001600160a01b038381166004830152602482018390527f0000000000000000000000000000000000000000000000000000000000000000169063a9059cbb906044016020604051808303815f875af1158015611171573d5f5f3e3d5ffd5b505050506040513d601f19601f8201168201806040525081019061119591906125f1565b6111b2576040516312171d8360e31b815260040160405180910390fd5b6111bc8284611d2e565b6001600160a01b0382165f9081526005602052604081208054600192906111e4908490612610565b90915550506001600160a01b0382165f9081526006602052604081208054839290611210908490612610565b90915550506040805182815260ff851660208201526001600160a01b03841691339187917f8fafb723282164ed95f6ab01b19672c9e500cb6966e1e57bfd41567dcf2290db910160405180910390a450505050565b6002602052815f5260405f20818154811061127e575f80fd5b5f91825260209091206004909102018054600182015460028301546003840180549396506001600160a01b03909216945092916112ba906124a3565b80601f01602080910402602001604051908101604052809291908181526020018280546112e6906124a3565b80156113315780601f1061130857610100808354040283529160200191611331565b820191905f5260205f20905b81548152906001019060200180831161131457829003601f168201915b5050505050905084565b6003602052815f5260405f208181548110611354575f80fd5b905f5260205f20015f91509150505481565b600154821061138b5760405163e9c2cf2160e01b815260048101839052602401610408565b336001600160a01b0316600183815481106113a8576113a861243b565b5f91825260209091206002600b9092020101546001600160a01b0316146113e557604051635ce925d760e01b815260048101839052602401610408565b60018083815481106113f9576113f961243b565b5f91825260209091206007600b90920201015460ff16600481111561142057611420611f60565b146114415760405163e9c2cf2160e01b815260048101839052602401610408565b6002600183815481106114565761145661243b565b5f91825260209091206007600b9092020101805460ff1916600183600481111561148257611482611f60565b0217905550806001838154811061149b5761149b61243b565b905f5260205f2090600b020160080190816114b69190612532565b50336001600160a01b0316827f9989978868daa22b7a8a054a31e686ab83a420750a2a60b58facca87bf7c1219836040516114f19190612623565b60405180910390a35050565b6001818154811061150c575f80fd5b5f9182526020909120600b909102018054600182015460028301546003840180549395506001600160a01b0392831694929091169261154a906124a3565b80601f0160208091040260200160405190810160405280929190818152602001828054611576906124a3565b80156115c15780601f10611598576101008083540402835291602001916115c1565b820191905f5260205f20905b8154815290600101906020018083116115a457829003601f168201915b5050505050908060040180546115d6906124a3565b80601f0160208091040260200160405190810160405280929190818152602001828054611602906124a3565b801561164d5780601f106116245761010080835404028352916020019161164d565b820191905f5260205f20905b81548152906001019060200180831161163057829003601f168201915b5050506005840154600685015460078601546008870180549697939692955060ff90911693509061167d906124a3565b80601f01602080910402602001604051908101604052809291908181526020018280546116a9906124a3565b80156116f45780601f106116cb576101008083540402835291602001916116f4565b820191905f5260205f20905b8154815290600101906020018083116116d757829003601f168201915b50505050509080600901549080600a015490508b565b5f620f424083101561172f576040516314414f4160e11b815260040160405180910390fd5b81158061173c5750601e82115b1561175a57604051631da7447960e21b815260040160405180910390fd5b6040516323b872dd60e01b8152336004820152306024820152604481018490527f00000000000000000000000000000000000000000000000000000000000000006001600160a01b0316906323b872dd906064016020604051808303815f875af11580156117ca573d5f5f3e3d5ffd5b505050506040513d601f19601f820116820180604052508101906117ee91906125f1565b1561180c576040516312171d8360e31b815260040160405180910390fd5b5f8054908061181a83612463565b9190505590505f604051806101600160405280838152602001336001600160a01b031681526020015f6001600160a01b0316815260200187815260200186815260200185815260200184620151806118729190612635565b61187c9042612610565b81526020015f815260408051602080820183525f8083528185019290925242838501526060938401829052600180548082018255925284517fb10e2d527612073b26eecdfd717e6a320cf44b4afac2b0732d9fcbe2b7fa0cf6600b909302928301908155908501517fb10e2d527612073b26eecdfd717e6a320cf44b4afac2b0732d9fcbe2b7fa0cf7830180546001600160a01b03199081166001600160a01b0393841617909155938601517fb10e2d527612073b26eecdfd717e6a320cf44b4afac2b0732d9fcbe2b7fa0cf88401805490951691161790925591830151929350839290917fb10e2d527612073b26eecdfd717e6a320cf44b4afac2b0732d9fcbe2b7fa0cf9019061198e9082612532565b50608082015160048201906119a39082612532565b5060a0820151600582015560c0820151600682015560e082015160078201805460ff191660018360048111156119db576119db611f60565b021790555061010082015160088201906119f59082612532565b50610120820151600982015561014090910151600a90910155335f818152600360209081526040808320805460018101825590845291909220018490555183907f9e3c9757475c00b86393e183b68033bb76e48fa164849c7428ad17f62e1954a790611a64908a90899061264c565b60405180910390a350949350505050565b6001600160a01b0381165f90815260036020908152604091829020805483518184028101840190945280845260609392830182828015611ad257602002820191905f5260205f20905b815481526020019060010190808311611abe575b50505050509050919050565b6001548210611b0357604051639d6bda0b60e01b815260048101839052602401610408565b336001600160a01b031660018381548110611b2057611b2061243b565b5f91825260209091206001600b9092020101546001600160a01b031614611b5d57604051631adc86f560e11b815260048101839052602401610408565b5f60018381548110611b7157611b7161243b565b5f91825260209091206007600b90920201015460ff166004811115611b9857611b98611f60565b14611bb957604051639d6bda0b60e01b815260048101839052602401610408565b5f60018381548110611bcd57611bcd61243b565b905f5260205f2090600b0201600501549050600460018481548110611bf457611bf461243b565b5f91825260209091206007600b9092020101805460ff19166001836004811115611c2057611c20611f60565b021790555060405163a9059cbb60e01b8152336004820152602481018290527f00000000000000000000000000000000000000000000000000000000000000006001600160a01b03169063a9059cbb906044016020604051808303815f875af1158015611c8f573d5f5f3e3d5ffd5b505050506040513d601f19601f82011682018060405250810190611cb391906125f1565b611cd0576040516312171d8360e31b815260040160405180910390fd5b336001600160a01b0316837fb648cd5c56d5badeeb864e8605fefa22133eaae000baee4782e7a3d2a350dead84604051611d0a9190612623565b60405180910390a3505050565b5f818310611d255781611d27565b825b9392505050565b6001600160a01b0382165f9081526004602090815260408083205460059092528220549091818103611d8557611d68600360ff861661247b565b611d73906032612635565b611d7e9060fa612610565b9050611de7565b81611d91816005612635565b611d9f60ff87166064612635565b611daa906005612635565b611db560018461247b565b611dbf9087612635565b611dc99190612610565b611dd3919061266d565b9150611de38260646101f4611e42565b9150505b6001600160a01b0385165f8181526004602090815260409182902084905581518681529081018490527f5b88a2e3fc1a53234357ab78c104df11c33ccfa79886793654565ad70b8afb6e910160405180910390a25050505050565b5f82841015611e52575081611d27565b81841115611e61575080611d27565b509192915050565b6040518061016001604052805f81526020015f6001600160a01b031681526020015f6001600160a01b0316815260200160608152602001606081526020015f81526020015f81526020015f6004811115611ec557611ec5611f60565b8152602001606081526020015f81526020015f81525090565b5f5f60408385031215611eef575f5ffd5b50508035926020909101359150565b80356001600160a01b0381168114611f14575f5ffd5b919050565b5f60208284031215611f29575f5ffd5b611d2782611efe565b5f81518084528060208401602086015e5f602082860101526020601f19601f83011685010191505092915050565b634e487b7160e01b5f52602160045260245ffd5b60058110611f9057634e487b7160e01b5f52602160045260245ffd5b9052565b805182525f6020820151611fb360208501826001600160a01b03169052565b506040820151611fce60408501826001600160a01b03169052565b5060608201516101606060850152611fea610160850182611f32565b9050608083015184820360808601526120038282611f32565b91505060a083015160a085015260c083015160c085015260e083015161202c60e0860182611f74565b506101008301518482036101008601526120468282611f32565b9150506101208301516101208501526101408301516101408501528091505092915050565b5f602082016020835280845180835260408501915060408160051b8601019250602086015f5b828110156120c257603f198786030184526120ad858351611f94565b94506020938401939190910190600101612091565b50929695505050505050565b5f602082840312156120de575f5ffd5b5035919050565b602081525f611d276020830184611f94565b5f602082016020835280845180835260408501915060408160051b8601019250602086015f5b828110156120c257868503603f190184528151805186526020808201516001600160a01b0316908701526040808201519087015260609081015160809187018290529061216c90870182611f32565b955050602093840193919091019060010161211d565b634e487b7160e01b5f52604160045260245ffd5b5f82601f8301126121a5575f5ffd5b813567ffffffffffffffff8111156121bf576121bf612182565b604051601f8201601f19908116603f0116810167ffffffffffffffff811182821017156121ee576121ee612182565b604052818152838201602001851015612205575f5ffd5b816020850160208301375f918101602001919091529392505050565b5f5f60408385031215612232575f5ffd5b82359150602083013567ffffffffffffffff81111561224f575f5ffd5b61225b85828601612196565b9150509250929050565b5f5f60408385031215612276575f5ffd5b82359150602083013560ff8116811461228d575f5ffd5b809150509250929050565b84815260018060a01b0384166020820152826040820152608060608201525f6122c46080830184611f32565b9695505050505050565b5f5f604083850312156122df575f5ffd5b6122e883611efe565b946020939093013593505050565b8b81526001600160a01b038b811660208301528a166040820152610160606082018190525f906123289083018b611f32565b828103608084015261233a818b611f32565b90508860a08401528760c084015261235560e0840188611f74565b8281036101008401526123688187611f32565b610120840195909552505061014001529998505050505050505050565b5f5f5f5f60808587031215612398575f5ffd5b843567ffffffffffffffff8111156123ae575f5ffd5b6123ba87828801612196565b945050602085013567ffffffffffffffff8111156123d6575f5ffd5b6123e287828801612196565b949794965050505060408301359260600135919050565b602080825282518282018190525f918401906040840190835b81811015612430578351835260209384019390920191600101612412565b509095945050505050565b634e487b7160e01b5f52603260045260245ffd5b634e487b7160e01b5f52601160045260245ffd5b5f600182016124745761247461244f565b5060010190565b81810381811115610a0257610a0261244f565b5f8161249c5761249c61244f565b505f190190565b600181811c908216806124b757607f821691505b6020821081036124d557634e487b7160e01b5f52602260045260245ffd5b50919050565b601f82111561252d578282111561252d57805f5260205f20601f840160051c602085101561250657505f5b90810190601f840160051c035f5b81811015612529575f83820155600101612514565b5050505b505050565b815167ffffffffffffffff81111561254c5761254c612182565b6125608161255a84546124a3565b846124db565b6020601f821160018114612592575f831561257b5750848201515b5f19600385901b1c1916600184901b1784556125ea565b5f84815260208120601f198516915b828110156125c157878501518255602094850194600190920191016125a1565b50848210156125de57868401515f19600387901b60f8161c191681555b505060018360011b0184555b5050505050565b5f60208284031215612601575f5ffd5b81518015158114611d27575f5ffd5b80820180821115610a0257610a0261244f565b602081525f611d276020830184611f32565b8082028115828204841417610a0257610a0261244f565b604081525f61265e6040830185611f32565b90508260208301529392505050565b5f8261268757634e487b7160e01b5f52601260045260245ffd5b50049056fea26469706673582212202aedc900d253d6f914deacf0fab193eb5bf3d981d54075daf05a07299809998b64736f6c63430008210033","linkReferences":{}},"methodIdentifiers":{"MAX_DEADLINE()":"6f0e530f","MAX_RATING()":"94e113ea","MIN_RATING()":"bb0e4ea2","MIN_REWARD()":"48ea0c03","acceptBid(uint256,uint256)":"02e9d5e4","agentTasks(address,uint256)":"670ad782","cancelTask(uint256,string)":"ecb8adae","completeTask(uint256,uint8)":"42f19aac","createTask(string,string,uint256,uint256)":"a4a268aa","getAgentStats(address)":"b5695b38","getAgentTaskHistory(address)":"add94fe7","getOpenTasks(uint256,uint256)":"164bcc26","getTask(uint256)":"1d65e77e","getTaskBids(uint256)":"2cacac9b","getTaskCount()":"c17a340e","reputationScores(address)":"fe0438b2","submitBid(uint256,string)":"3a01135e","submitTask(uint256,string)":"776bae68","taskBids(uint256,uint256)":"5492b197","taskCount(address)":"082d1abb","tasks(uint256)":"8d977672","totalEarned(address)":"649aca4a","usdcToken()":"11eac855"},"id":0}